{
  "contractName": "TodoList",
  "abi": [
    {
      "constant": true,
      "inputs": [],
      "name": "demodone",
      "outputs": [
        {
          "internalType": "bool",
          "name": "",
          "type": "bool"
        }
      ],
      "payable": false,
      "stateMutability": "view",
      "type": "function"
    },
    {
      "constant": true,
      "inputs": [],
      "name": "demostring",
      "outputs": [
        {
          "internalType": "string",
          "name": "",
          "type": "string"
        }
      ],
      "payable": false,
      "stateMutability": "view",
      "type": "function"
    },
    {
      "constant": true,
      "inputs": [
        {
          "internalType": "uint256",
          "name": "",
          "type": "uint256"
        }
      ],
      "name": "tasks",
      "outputs": [
        {
          "internalType": "string",
          "name": "task_name",
          "type": "string"
        },
        {
          "internalType": "bool",
          "name": "done",
          "type": "bool"
        }
      ],
      "payable": false,
      "stateMutability": "view",
      "type": "function"
    },
    {
      "constant": true,
      "inputs": [],
      "name": "get",
      "outputs": [
        {
          "internalType": "string",
          "name": "",
          "type": "string"
        }
      ],
      "payable": false,
      "stateMutability": "view",
      "type": "function"
    },
    {
      "constant": false,
      "inputs": [
        {
          "internalType": "string",
          "name": "task_name_",
          "type": "string"
        },
        {
          "internalType": "bool",
          "name": "done_",
          "type": "bool"
        }
      ],
      "name": "create",
      "outputs": [
        {
          "internalType": "bool",
          "name": "",
          "type": "bool"
        }
      ],
      "payable": false,
      "stateMutability": "nonpayable",
      "type": "function"
    }
  ],
  "bytecode": "0x60c060405260056080819052640aec2e8c6d60db1b60a09081526100269160009190610043565b506001805460ff1916905534801561003d57600080fd5b506100de565b828054600181600116156101000203166002900490600052602060002090601f016020900481019282601f1061008457805160ff19168380011785556100b1565b828001600101855582156100b1579182015b828111156100b1578251825591602001919060010190610096565b506100bd9291506100c1565b5090565b6100db91905b808211156100bd57600081556001016100c7565b90565b610582806100ed6000396000f3fe608060405234801561001057600080fd5b50600436106100575760003560e01c80631118c9441461005c5780636d4ce63c146100d95780638d977672146100e1578063cc10e40114610181578063eb4e20781461023d575b600080fd5b610064610245565b6040805160208082528351818301528351919283929083019185019080838360005b8381101561009e578181015183820152602001610086565b50505050905090810190601f1680156100cb5780820380516001836020036101000a031916815260200191505b509250505060405180910390f35b6100646102d3565b6100fe600480360360208110156100f757600080fd5b503561036a565b604051808060200183151515158152602001828103825284818151815260200191508051906020019080838360005b8381101561014557818101518382015260200161012d565b50505050905090810190601f1680156101725780820380516001836020036101000a031916815260200191505b50935050505060405180910390f35b6102296004803603604081101561019757600080fd5b8101906020810181356401000000008111156101b257600080fd5b8201836020820111156101c457600080fd5b803590602001918460018302840111640100000000831117156101e657600080fd5b91908080601f0160208091040260200160405190810160405280939291908181526020018383808284376000920191909152509295505050503515159050610420565b604080519115158252519081900360200190f35b6102296104ac565b6000805460408051602060026001851615610100026000190190941693909304601f810184900484028201840190925281815292918301828280156102cb5780601f106102a0576101008083540402835291602001916102cb565b820191906000526020600020905b8154815290600101906020018083116102ae57829003601f168201915b505050505081565b60008054604080516020601f600260001961010060018816150201909516949094049384018190048102820181019092528281526060939092909183018282801561035f5780601f106103345761010080835404028352916020019161035f565b820191906000526020600020905b81548152906001019060200180831161034257829003601f168201915b505050505090505b90565b6002818154811061037757fe5b60009182526020918290206002918202018054604080516001831615610100026000190190921693909304601f81018590048502820185019093528281529093509183919083018282801561040d5780601f106103e25761010080835404028352916020019161040d565b820191906000526020600020905b8154815290600101906020018083116103f057829003601f168201915b5050506001909301549192505060ff1682565b604080518082019091528281528115156020808301919091526002805460018101808355600083815285518051919692959294939093027f405787fa12a823e0f2b7631cc41b3ba8828b3321ca811111fa75cd3aa3bb5ace01926104889284929101906104b5565b50602091909101516001918201805460ff1916911515919091179055949350505050565b60015460ff1681565b828054600181600116156101000203166002900490600052602060002090601f016020900481019282601f106104f657805160ff1916838001178555610523565b82800160010185558215610523579182015b82811115610523578251825591602001919060010190610508565b5061052f929150610533565b5090565b61036791905b8082111561052f576000815560010161053956fea265627a7a723158207cfd4d32da0d921a9dd62220caa666f868d435107a8234f54c1eb392338a63e164736f6c63430005100032",
  "source": "pragma solidity ^0.5.0;\n\ncontract TodoList{\n\n    string public demostring = \"Watch\";\n    bool public demodone = false;\n\n    struct Task {\n      string task_name;\n      bool done;\n    }\n\n    Task[] public tasks;\n\n    function get() public view returns(string memory)\n    {\n        return (demostring);\n    }\n\n    function create(string memory task_name_, bool done_) public returns(bool)\n    {\n        tasks.push(Task(task_name_, done_));\n        return (true);\n    }\n}",
  "sourcePath": "C:/Users/91704/Desktop/Assignment-tdoc-day-2/contracts/TodoList.sol",
  "compiler": {
    "name": "solc",
    "version": "0.5.16+commit.9c3226ce.Emscripten.clang"
  },
  "schemaVersion": "3.2.3",
  "updatedAt": "2021-10-20T11:15:10.615Z",
  "networkType": "ethereum",
  "devdoc": {
    "methods": {}
  },
  "userdoc": {
    "methods": {}
  }
}