{
  "contractName": "ToDo",
  "abi": [
    {
      "constant": true,
      "inputs": [],
      "name": "taskCount",
      "outputs": [
        {
          "internalType": "uint256",
          "name": "",
          "type": "uint256"
        }
      ],
      "payable": false,
      "stateMutability": "view",
      "type": "function"
    },
    {
      "constant": true,
      "inputs": [
        {
          "internalType": "uint256",
          "name": "",
          "type": "uint256"
        }
      ],
      "name": "tasksMap",
      "outputs": [
        {
          "internalType": "uint256",
          "name": "id",
          "type": "uint256"
        },
        {
          "internalType": "string",
          "name": "content",
          "type": "string"
        },
        {
          "internalType": "bool",
          "name": "completed",
          "type": "bool"
        },
        {
          "internalType": "bool",
          "name": "deleted",
          "type": "bool"
        }
      ],
      "payable": false,
      "stateMutability": "view",
      "type": "function"
    },
    {
      "constant": false,
      "inputs": [
        {
          "internalType": "string",
          "name": "_content",
          "type": "string"
        }
      ],
      "name": "createTask",
      "outputs": [],
      "payable": false,
      "stateMutability": "nonpayable",
      "type": "function"
    },
    {
      "constant": true,
      "inputs": [],
      "name": "getTaskCount",
      "outputs": [
        {
          "internalType": "uint256",
          "name": "",
          "type": "uint256"
        }
      ],
      "payable": false,
      "stateMutability": "view",
      "type": "function"
    },
    {
      "constant": true,
      "inputs": [
        {
          "internalType": "uint256",
          "name": "_i",
          "type": "uint256"
        }
      ],
      "name": "getTask",
      "outputs": [
        {
          "internalType": "uint256",
          "name": "",
          "type": "uint256"
        },
        {
          "internalType": "string",
          "name": "",
          "type": "string"
        },
        {
          "internalType": "bool",
          "name": "",
          "type": "bool"
        },
        {
          "internalType": "bool",
          "name": "",
          "type": "bool"
        }
      ],
      "payable": false,
      "stateMutability": "view",
      "type": "function"
    },
    {
      "constant": false,
      "inputs": [
        {
          "internalType": "uint256",
          "name": "_id",
          "type": "uint256"
        }
      ],
      "name": "deleteTask",
      "outputs": [
        {
          "internalType": "string",
          "name": "",
          "type": "string"
        }
      ],
      "payable": false,
      "stateMutability": "nonpayable",
      "type": "function"
    },
    {
      "constant": false,
      "inputs": [
        {
          "internalType": "uint256",
          "name": "_id",
          "type": "uint256"
        }
      ],
      "name": "toggleComplete",
      "outputs": [],
      "payable": false,
      "stateMutability": "nonpayable",
      "type": "function"
    }
  ],
  "bytecode": "0x60806040526000805534801561001457600080fd5b506108bd806100246000396000f3fe608060405234801561001057600080fd5b506004361061007d5760003560e01c8063560f31921161005b578063560f31921461022f5780638845a909146102d6578063b6cb58a51461039a578063c17a340e146103b85761007d565b80630951e5bd14610082578063111002aa146100b05780631d65e77e1461016b575b600080fd5b6100ae6004803603602081101561009857600080fd5b81019080803590602001909291905050506103d6565b005b610169600480360360208110156100c657600080fd5b81019080803590602001906401000000008111156100e357600080fd5b8201836020820111156100f557600080fd5b8035906020019184600183028401116401000000008311171561011757600080fd5b91908080601f016020809104026020016040519081016040528093929190818152602001838380828437600081840152601f19601f82011690508083019250505050505050919291929050505061042b565b005b6101976004803603602081101561018157600080fd5b81019080803590602001909291905050506104e6565b60405180858152602001806020018415151515815260200183151515158152602001828103825285818151815260200191508051906020019080838360005b838110156101f15780820151818401526020810190506101d6565b50505050905090810190601f16801561021e5780820380516001836020036101000a031916815260200191505b509550505050505060405180910390f35b61025b6004803603602081101561024557600080fd5b810190808035906020019092919050505061060c565b6040518080602001828103825283818151815260200191508051906020019080838360005b8381101561029b578082015181840152602081019050610280565b50505050905090810190601f1680156102c85780820380516001836020036101000a031916815260200191505b509250505060405180910390f35b610302600480360360208110156102ec57600080fd5b81019080803590602001909291905050506106f2565b60405180858152602001806020018415151515815260200183151515158152602001828103825285818151815260200191508051906020019080838360005b8381101561035c578082015181840152602081019050610341565b50505050905090810190601f1680156103895780820380516001836020036101000a031916815260200191505b509550505050505060405180910390f35b6103a26107d4565b6040518082815260200191505060405180910390f35b6103c06107da565b6040518082815260200191505060405180910390f35b6001600082815260200190815260200160002060020160009054906101000a900460ff16156001600083815260200190815260200160002060020160006101000a81548160ff02191690831515021790555050565b6040518060800160405280600054815260200182815260200160001515815260200160001515815250600160008054815260200190815260200160002060008201518160000155602082015181600101908051906020019061048e9291906107e3565b5060408201518160020160006101000a81548160ff02191690831515021790555060608201518160020160016101000a81548160ff021916908315150217905550905050600080815480929190600101919050555050565b6000606060008060008590506060600160008881526020019081526020016000206001018054600181600116156101000203166002900480601f01602080910402602001604051908101604052809291908181526020018280546001816001161561010002031660029004801561059e5780601f106105735761010080835404028352916020019161059e565b820191906000526020600020905b81548152906001019060200180831161058157829003601f168201915b5050505050905060006001600089815260200190815260200160002060020160009054906101000a900460ff1690506000600160008a815260200190815260200160002060020160019054906101000a900460ff169050838383839750975097509750505050509193509193565b6060600180600084815260200190815260200160002060020160016101000a81548160ff021916908315150217905550600160008381526020019081526020016000206001018054600181600116156101000203166002900480601f0160208091040260200160405190810160405280929190818152602001828054600181600116156101000203166002900480156106e65780601f106106bb576101008083540402835291602001916106e6565b820191906000526020600020905b8154815290600101906020018083116106c957829003601f168201915b50505050509050919050565b6001602052806000526040600020600091509050806000015490806001018054600181600116156101000203166002900480601f0160208091040260200160405190810160405280929190818152602001828054600181600116156101000203166002900480156107a45780601f10610779576101008083540402835291602001916107a4565b820191906000526020600020905b81548152906001019060200180831161078757829003601f168201915b5050505050908060020160009054906101000a900460ff16908060020160019054906101000a900460ff16905084565b60005481565b60008054905090565b828054600181600116156101000203166002900490600052602060002090601f016020900481019282601f1061082457805160ff1916838001178555610852565b82800160010185558215610852579182015b82811115610851578251825591602001919060010190610836565b5b50905061085f9190610863565b5090565b61088591905b80821115610881576000816000905550600101610869565b5090565b9056fea265627a7a723158207b4098d9fca5b881a4479757dbf1d16ed5da2240d519a1ed2663c330a5d7d03f64736f6c63430005100032",
  "source": "pragma solidity >=0.5.16;\n\ncontract ToDo\n{\n    uint public taskCount=0;  // unsigned int var to keep track of no of tasks\n\n    struct Task\n    {\n        uint id;  //task ID\n        string content; //task content\n        bool completed; //check completion\n        bool deleted; //check if deleted \n    }\n\n    mapping(uint=>Task) public tasksMap; //creating an array tasksMap of key value pairs(mapping)\n\n  function createTask(string memory _content) public \n  {\n    tasksMap[taskCount] = Task(taskCount, _content, false, false);\n    // tasksMap.push(task);\n    taskCount ++;\n  }\n  \n  function getTaskCount() public view returns (uint) \n  {\n    return taskCount; \n  }\n\n  function getTask(uint _i) public view returns (uint, string memory, bool, bool) \n  {\n    uint id = _i;\n    string memory cont = tasksMap[_i].content;\n    bool state = tasksMap[_i].completed;\n    bool dele = tasksMap[_i].deleted;\n    return (id, cont, state, dele);\n  }\n\n  function deleteTask(uint _id) public returns (string memory) \n  {\n    // tasksMap[id] = Task(id, \"\", false, true);\n    // Task storage task = tasksMap[id];\n    // task.deleted = true;\n    tasksMap[_id].deleted = true; \n\n    return tasksMap[_id].content;\n  }\n\n  function toggleComplete(uint _id) public \n  {\n    tasksMap[_id].completed = !tasksMap[_id].completed;\n  }\n\n}",
  "sourcePath": "/Users/shashwatgupta/Documents/Eth/contracts/ToDo.sol",
  "compiler": {
    "name": "solc",
    "version": "0.5.16+commit.9c3226ce.Emscripten.clang"
  },
  "schemaVersion": "3.4.3",
  "updatedAt": "2021-10-28T14:28:35.657Z",
  "networkType": "ethereum",
  "devdoc": {
    "methods": {}
  },
  "userdoc": {
    "methods": {}
  }
}