{
  "contractName": "Banking",
  "abi": [
    {
      "inputs": [],
      "payable": false,
      "stateMutability": "nonpayable",
      "type": "constructor"
    },
    {
      "constant": true,
      "inputs": [
        {
          "internalType": "uint256",
          "name": "",
          "type": "uint256"
        }
      ],
      "name": "accounts",
      "outputs": [
        {
          "internalType": "uint256",
          "name": "serial",
          "type": "uint256"
        },
        {
          "internalType": "uint256",
          "name": "createdAt",
          "type": "uint256"
        },
        {
          "internalType": "string",
          "name": "name",
          "type": "string"
        },
        {
          "internalType": "string",
          "name": "location",
          "type": "string"
        },
        {
          "internalType": "address",
          "name": "creator",
          "type": "address"
        },
        {
          "internalType": "uint256",
          "name": "balance",
          "type": "uint256"
        },
        {
          "internalType": "bool",
          "name": "doesExist",
          "type": "bool"
        }
      ],
      "payable": false,
      "stateMutability": "view",
      "type": "function"
    },
    {
      "constant": true,
      "inputs": [],
      "name": "bankBalance",
      "outputs": [
        {
          "internalType": "uint256",
          "name": "",
          "type": "uint256"
        }
      ],
      "payable": false,
      "stateMutability": "view",
      "type": "function"
    },
    {
      "constant": true,
      "inputs": [],
      "name": "serialNumber",
      "outputs": [
        {
          "internalType": "uint256",
          "name": "",
          "type": "uint256"
        }
      ],
      "payable": false,
      "stateMutability": "view",
      "type": "function"
    },
    {
      "constant": false,
      "inputs": [
        {
          "internalType": "address payable",
          "name": "_creator",
          "type": "address"
        },
        {
          "internalType": "string",
          "name": "_name",
          "type": "string"
        },
        {
          "internalType": "string",
          "name": "_location",
          "type": "string"
        }
      ],
      "name": "createAccount",
      "outputs": [],
      "payable": true,
      "stateMutability": "payable",
      "type": "function"
    }
  ],
  "bytecode": "0x608060405260008055600060015534801561001957600080fd5b506040518060e00160405280600081526020014281526020016040518060400160405280600881526020017f457468657265616c00000000000000000000000000000000000000000000000081525081526020016040518060400160405280600c81526020017f4e4954204475726761707572000000000000000000000000000000000000000081525081526020013073ffffffffffffffffffffffffffffffffffffffff168152602001600081526020016001151581525060026000808152602001908152602001600020600082015181600001556020820151816001015560408201518160020190805190602001906101159291906101ac565b5060608201518160030190805190602001906101329291906101ac565b5060808201518160040160006101000a81548173ffffffffffffffffffffffffffffffffffffffff021916908373ffffffffffffffffffffffffffffffffffffffff16021790555060a0820151816005015560c08201518160060160006101000a81548160ff021916908315150217905550905050610251565b828054600181600116156101000203166002900490600052602060002090601f016020900481019282601f106101ed57805160ff191683800117855561021b565b8280016001018555821561021b579182015b8281111561021a5782518255916020019190600101906101ff565b5b509050610228919061022c565b5090565b61024e91905b8082111561024a576000816000905550600101610232565b5090565b90565b6107e2806102606000396000f3fe60806040526004361061003f5760003560e01c806328657aa5146100445780632a0daeea1461006f5780634dbe44541461009a578063f2a40db81461020c575b600080fd5b34801561005057600080fd5b5061005961037f565b6040518082815260200191505060405180910390f35b34801561007b57600080fd5b50610084610385565b6040518082815260200191505060405180910390f35b61020a600480360360608110156100b057600080fd5b81019080803573ffffffffffffffffffffffffffffffffffffffff169060200190929190803590602001906401000000008111156100ed57600080fd5b8201836020820111156100ff57600080fd5b8035906020019184600183028401116401000000008311171561012157600080fd5b91908080601f016020809104026020016040519081016040528093929190818152602001838380828437600081840152601f19601f8201169050808301925050505050505091929192908035906020019064010000000081111561018457600080fd5b82018360208201111561019657600080fd5b803590602001918460018302840111640100000000831117156101b857600080fd5b91908080601f016020809104026020016040519081016040528093929190818152602001838380828437600081840152601f19601f82011690508083019250505050505050919291929050505061038b565b005b34801561021857600080fd5b506102456004803603602081101561022f57600080fd5b8101908080359060200190929190505050610569565b6040518088815260200187815260200180602001806020018673ffffffffffffffffffffffffffffffffffffffff1673ffffffffffffffffffffffffffffffffffffffff16815260200185815260200184151515158152602001838103835288818151815260200191508051906020019080838360005b838110156102d75780820151818401526020810190506102bc565b50505050905090810190601f1680156103045780820380516001836020036101000a031916815260200191505b50838103825287818151815260200191508051906020019080838360005b8381101561033d578082015181840152602081019050610322565b50505050905090810190601f16801561036a5780820380516001836020036101000a031916815260200191505b50995050505050505050505060405180910390f35b60015481565b60005481565b60038373ffffffffffffffffffffffffffffffffffffffff1631106104f65760008081548092919060010191905055506040518060e0016040528060005481526020014281526020018381526020018281526020018473ffffffffffffffffffffffffffffffffffffffff168152602001600281526020016001151581525060026000805481526020019081526020016000206000820151816000015560208201518160010155604082015181600201908051906020019061044e929190610708565b50606082015181600301908051906020019061046b929190610708565b5060808201518160040160006101000a81548173ffffffffffffffffffffffffffffffffffffffff021916908373ffffffffffffffffffffffffffffffffffffffff16021790555060a0820151816005015560c08201518160060160006101000a81548160ff0219169083151502179055509050506002600160008282540192505081905550610564565b6040517f08c379a00000000000000000000000000000000000000000000000000000000081526004018080602001828103825260128152602001807f496e73756666696369656e742046756e6473000000000000000000000000000081525060200191505060405180910390fd5b505050565b6002602052806000526040600020600091509050806000015490806001015490806002018054600181600116156101000203166002900480601f0160208091040260200160405190810160405280929190818152602001828054600181600116156101000203166002900480156106215780601f106105f657610100808354040283529160200191610621565b820191906000526020600020905b81548152906001019060200180831161060457829003601f168201915b505050505090806003018054600181600116156101000203166002900480601f0160208091040260200160405190810160405280929190818152602001828054600181600116156101000203166002900480156106bf5780601f10610694576101008083540402835291602001916106bf565b820191906000526020600020905b8154815290600101906020018083116106a257829003601f168201915b5050505050908060040160009054906101000a900473ffffffffffffffffffffffffffffffffffffffff16908060050154908060060160009054906101000a900460ff16905087565b828054600181600116156101000203166002900490600052602060002090601f016020900481019282601f1061074957805160ff1916838001178555610777565b82800160010185558215610777579182015b8281111561077657825182559160200191906001019061075b565b5b5090506107849190610788565b5090565b6107aa91905b808211156107a657600081600090555060010161078e565b5090565b9056fea265627a7a72315820ba67bbaa9dd383b6ad49ddf40203073b7bc96ed64f2e884f6714ca50ac894bbe64736f6c63430005100032",
  "source": "pragma solidity >0.5.1;\n\ncontract Banking {\n    uint256 public serialNumber = 0;\n\n    uint256 public bankBalance = 0;\n\n    struct Account {\n        uint256 serial;\n        uint256 createdAt;\n        string name;\n        string location;\n        address creator;\n        uint256 balance;\n        bool doesExist;\n    }\n\n    constructor() public {\n        accounts[0] = Account(\n            0,\n            block.timestamp,\n            \"Ethereal\",\n            \"NIT Durgapur\",\n            address(this),\n            0,\n            true\n        );\n    }\n\n    mapping(uint256 => Account) public accounts;\n\n    function createAccount(\n        address payable _creator,\n        string memory _name,\n        string memory _location\n    ) public payable {\n        if (_creator.balance >= 3) {\n            serialNumber++;\n\n            accounts[serialNumber] = Account(\n                serialNumber,\n                block.timestamp,\n                _name,\n                _location,\n                _creator,\n                2,\n                true\n            );\n            bankBalance += 2;\n        } else {\n            revert(\"Insufficient Funds\");\n        }\n    }\n\n    // function addBalance(\n    //     uint256 _serial,\n    //     uint256 _amount,\n    //     address payable _creator\n    // ) public payable {\n    //     if (_creator.balance >= _amount / 1000000000000000000 + 1) {\n    //         accounts[_serial].balance += _amount / 1000000000000000000;\n    //         bankBalance += _amount / 1000000000000000000;\n    //     } else {\n    //         revert(\"Insufficient Funds\");\n    //     }\n    // }\n\n    // function getBalance(uint256 _serial) public view returns (uint256) {\n    //     uint256 bal = accounts[_serial].balance;\n    //     return bal;\n    // }\n\n    // function getContractBalance() external view returns (uint256) {\n    //     return address(this).balance;\n    // }\n}\n",
  "sourcePath": "C:/Users/91704/Desktop/Ethereal/contracts/Banking.sol",
  "compiler": {
    "name": "solc",
    "version": "0.5.16+commit.9c3226ce.Emscripten.clang"
  },
  "schemaVersion": "3.2.3",
  "updatedAt": "2021-10-26T11:42:41.492Z",
  "networkType": "ethereum",
  "devdoc": {
    "methods": {}
  },
  "userdoc": {
    "methods": {}
  }
}