{
  "contractName": "Banking",
  "abi": [
    {
      "inputs": [],
      "payable": false,
      "stateMutability": "nonpayable",
      "type": "constructor"
    },
    {
      "constant": true,
      "inputs": [
        {
          "internalType": "uint256",
          "name": "",
          "type": "uint256"
        }
      ],
      "name": "accounts",
      "outputs": [
        {
          "internalType": "uint256",
          "name": "serial",
          "type": "uint256"
        },
        {
          "internalType": "uint256",
          "name": "createdAt",
          "type": "uint256"
        },
        {
          "internalType": "string",
          "name": "name",
          "type": "string"
        },
        {
          "internalType": "string",
          "name": "location",
          "type": "string"
        },
        {
          "internalType": "address",
          "name": "creator",
          "type": "address"
        },
        {
          "internalType": "uint256",
          "name": "balance",
          "type": "uint256"
        },
        {
          "internalType": "bool",
          "name": "doesExist",
          "type": "bool"
        }
      ],
      "payable": false,
      "stateMutability": "view",
      "type": "function"
    },
    {
      "constant": true,
      "inputs": [],
      "name": "bankBalance",
      "outputs": [
        {
          "internalType": "uint256",
          "name": "",
          "type": "uint256"
        }
      ],
      "payable": false,
      "stateMutability": "view",
      "type": "function"
    },
    {
      "constant": true,
      "inputs": [],
      "name": "serialNumber",
      "outputs": [
        {
          "internalType": "uint256",
          "name": "",
          "type": "uint256"
        }
      ],
      "payable": false,
      "stateMutability": "view",
      "type": "function"
    },
    {
      "constant": false,
      "inputs": [
        {
          "internalType": "address payable",
          "name": "_creator",
          "type": "address"
        },
        {
          "internalType": "string",
          "name": "_name",
          "type": "string"
        },
        {
          "internalType": "string",
          "name": "_location",
          "type": "string"
        }
      ],
      "name": "createAccount",
      "outputs": [],
      "payable": true,
      "stateMutability": "payable",
      "type": "function"
    },
    {
      "constant": false,
      "inputs": [
        {
          "internalType": "uint256",
          "name": "_serial",
          "type": "uint256"
        },
        {
          "internalType": "uint256",
          "name": "_amount",
          "type": "uint256"
        },
        {
          "internalType": "address payable",
          "name": "_creator",
          "type": "address"
        }
      ],
      "name": "addBalance",
      "outputs": [],
      "payable": true,
      "stateMutability": "payable",
      "type": "function"
    },
    {
      "constant": true,
      "inputs": [
        {
          "internalType": "uint256",
          "name": "_serial",
          "type": "uint256"
        }
      ],
      "name": "getBalance",
      "outputs": [
        {
          "internalType": "uint256",
          "name": "",
          "type": "uint256"
        }
      ],
      "payable": false,
      "stateMutability": "view",
      "type": "function"
    },
    {
      "constant": true,
      "inputs": [],
      "name": "getContractBalance",
      "outputs": [
        {
          "internalType": "uint256",
          "name": "",
          "type": "uint256"
        }
      ],
      "payable": false,
      "stateMutability": "view",
      "type": "function"
    }
  ],
  "bytecode": "0x608060405260008055600060015534801561001957600080fd5b506040518060e00160405280600081526020014281526020016040518060400160405280600881526020017f457468657265616c00000000000000000000000000000000000000000000000081525081526020016040518060400160405280600c81526020017f4e4954204475726761707572000000000000000000000000000000000000000081525081526020013073ffffffffffffffffffffffffffffffffffffffff168152602001600081526020016001151581525060026000808152602001908152602001600020600082015181600001556020820151816001015560408201518160020190805190602001906101159291906101ac565b5060608201518160030190805190602001906101329291906101ac565b5060808201518160040160006101000a81548173ffffffffffffffffffffffffffffffffffffffff021916908373ffffffffffffffffffffffffffffffffffffffff16021790555060a0820151816005015560c08201518160060160006101000a81548160ff021916908315150217905550905050610251565b828054600181600116156101000203166002900490600052602060002090601f016020900481019282601f106101ed57805160ff191683800117855561021b565b8280016001018555821561021b579182015b8281111561021a5782518255916020019190600101906101ff565b5b509050610228919061022c565b5090565b61024e91905b8082111561024a576000816000905550600101610232565b5090565b90565b610a12806102606000396000f3fe6080604052600436106100705760003560e01c80634dbe44541161004e5780634dbe44541461011a5780636f9fb98a1461028c578063e15cdcc4146102b7578063f2a40db81461030f57610070565b80631e0104391461007557806328657aa5146100c45780632a0daeea146100ef575b600080fd5b34801561008157600080fd5b506100ae6004803603602081101561009857600080fd5b8101908080359060200190929190505050610482565b6040518082815260200191505060405180910390f35b3480156100d057600080fd5b506100d96104a7565b6040518082815260200191505060405180910390f35b3480156100fb57600080fd5b506101046104ad565b6040518082815260200191505060405180910390f35b61028a6004803603606081101561013057600080fd5b81019080803573ffffffffffffffffffffffffffffffffffffffff1690602001909291908035906020019064010000000081111561016d57600080fd5b82018360208201111561017f57600080fd5b803590602001918460018302840111640100000000831117156101a157600080fd5b91908080601f016020809104026020016040519081016040528093929190818152602001838380828437600081840152601f19601f8201169050808301925050505050505091929192908035906020019064010000000081111561020457600080fd5b82018360208201111561021657600080fd5b8035906020019184600183028401116401000000008311171561023857600080fd5b91908080601f016020809104026020016040519081016040528093929190818152602001838380828437600081840152601f19601f8201169050808301925050505050505091929192905050506104b3565b005b34801561029857600080fd5b506102a1610691565b6040518082815260200191505060405180910390f35b61030d600480360360608110156102cd57600080fd5b810190808035906020019092919080359060200190929190803573ffffffffffffffffffffffffffffffffffffffff169060200190929190505050610699565b005b34801561031b57600080fd5b506103486004803603602081101561033257600080fd5b8101908080359060200190929190505050610799565b6040518088815260200187815260200180602001806020018673ffffffffffffffffffffffffffffffffffffffff1673ffffffffffffffffffffffffffffffffffffffff16815260200185815260200184151515158152602001838103835288818151815260200191508051906020019080838360005b838110156103da5780820151818401526020810190506103bf565b50505050905090810190601f1680156104075780820380516001836020036101000a031916815260200191505b50838103825287818151815260200191508051906020019080838360005b83811015610440578082015181840152602081019050610425565b50505050905090810190601f16801561046d5780820380516001836020036101000a031916815260200191505b50995050505050505050505060405180910390f35b6000806002600084815260200190815260200160002060050154905080915050919050565b60015481565b60005481565b60038373ffffffffffffffffffffffffffffffffffffffff16311061061e5760008081548092919060010191905055506040518060e0016040528060005481526020014281526020018381526020018281526020018473ffffffffffffffffffffffffffffffffffffffff1681526020016002815260200160011515815250600260008054815260200190815260200160002060008201518160000155602082015181600101556040820151816002019080519060200190610576929190610938565b506060820151816003019080519060200190610593929190610938565b5060808201518160040160006101000a81548173ffffffffffffffffffffffffffffffffffffffff021916908373ffffffffffffffffffffffffffffffffffffffff16021790555060a0820151816005015560c08201518160060160006101000a81548160ff021916908315150217905550905050600260016000828254019250508190555061068c565b6040517f08c379a00000000000000000000000000000000000000000000000000000000081526004018080602001828103825260128152602001807f496e73756666696369656e742046756e6473000000000000000000000000000081525060200191505060405180910390fd5b505050565b600047905090565b6001670de0b6b3a764000083816106ac57fe5b04018173ffffffffffffffffffffffffffffffffffffffff16311061072657670de0b6b3a764000082816106dc57fe5b046002600085815260200190815260200160002060050160008282540192505081905550670de0b6b3a7640000828161071157fe5b04600160008282540192505081905550610794565b6040517f08c379a00000000000000000000000000000000000000000000000000000000081526004018080602001828103825260128152602001807f496e73756666696369656e742046756e6473000000000000000000000000000081525060200191505060405180910390fd5b505050565b6002602052806000526040600020600091509050806000015490806001015490806002018054600181600116156101000203166002900480601f0160208091040260200160405190810160405280929190818152602001828054600181600116156101000203166002900480156108515780601f1061082657610100808354040283529160200191610851565b820191906000526020600020905b81548152906001019060200180831161083457829003601f168201915b505050505090806003018054600181600116156101000203166002900480601f0160208091040260200160405190810160405280929190818152602001828054600181600116156101000203166002900480156108ef5780601f106108c4576101008083540402835291602001916108ef565b820191906000526020600020905b8154815290600101906020018083116108d257829003601f168201915b5050505050908060040160009054906101000a900473ffffffffffffffffffffffffffffffffffffffff16908060050154908060060160009054906101000a900460ff16905087565b828054600181600116156101000203166002900490600052602060002090601f016020900481019282601f1061097957805160ff19168380011785556109a7565b828001600101855582156109a7579182015b828111156109a657825182559160200191906001019061098b565b5b5090506109b491906109b8565b5090565b6109da91905b808211156109d65760008160009055506001016109be565b5090565b9056fea265627a7a72315820769a08411805f42fff4e7915cec952e763f48e4e6692a49433622b63f90742fb64736f6c63430005100032",
  "source": "pragma solidity >0.5.1;\n\ncontract Banking {\n    uint256 public serialNumber = 0;\n\n    uint256 public bankBalance = 0;\n\n    struct Account {\n        uint256 serial;\n        uint256 createdAt;\n        string name;\n        string location;\n        address creator;\n        uint256 balance;\n        bool doesExist;\n    }\n\n    constructor() public {\n        accounts[0] = Account(\n            0,\n            block.timestamp,\n            \"Ethereal\",\n            \"NIT Durgapur\",\n            address(this),\n            0,\n            true\n        );\n    }\n\n    mapping(uint256 => Account) public accounts;\n\n    function createAccount(\n        address payable _creator,\n        string memory _name,\n        string memory _location\n    ) public payable {\n        if (_creator.balance >= 3) {\n            serialNumber++;\n\n            accounts[serialNumber] = Account(\n                serialNumber,\n                block.timestamp,\n                _name,\n                _location,\n                _creator,\n                2,\n                true\n            );\n            bankBalance += 2;\n        } else {\n            revert(\"Insufficient Funds\");\n        }\n    }\n\n    function addBalance(\n        uint256 _serial,\n        uint256 _amount,\n        address payable _creator\n    ) public payable {\n        if (_creator.balance >= _amount / 1000000000000000000 + 1) {\n            accounts[_serial].balance += _amount / 1000000000000000000;\n            bankBalance += _amount / 1000000000000000000;\n        } else {\n            revert(\"Insufficient Funds\");\n        }\n    }\n\n    function getBalance(uint256 _serial) public view returns (uint256) {\n        uint256 bal = accounts[_serial].balance;\n        return bal;\n    }\n\n    function getContractBalance() external view returns (uint256) {\n        return address(this).balance;\n    }\n}\n",
  "sourcePath": "C:/Users/91704/Desktop/Ethereal/contracts/Banking.sol",
  "compiler": {
    "name": "solc",
    "version": "0.5.16+commit.9c3226ce.Emscripten.clang"
  },
  "schemaVersion": "3.2.3",
  "updatedAt": "2021-10-26T11:57:14.048Z",
  "networkType": "ethereum",
  "devdoc": {
    "methods": {}
  },
  "userdoc": {
    "methods": {}
  }
}