{
    "contractName": "Demo",
    "abi": [
        {
            "inputs": [
                {
                    "internalType": "uint256",
                    "name": "",
                    "type": "uint256"
                }
            ],
            "name": "accounts",
            "outputs": [
                {
                    "internalType": "uint256",
                    "name": "serial",
                    "type": "uint256"
                },
                {
                    "internalType": "uint256",
                    "name": "createdAt",
                    "type": "uint256"
                },
                {
                    "internalType": "string",
                    "name": "name",
                    "type": "string"
                },
                {
                    "internalType": "string",
                    "name": "location",
                    "type": "string"
                },
                {
                    "internalType": "address payable",
                    "name": "creator",
                    "type": "address"
                },
                {
                    "internalType": "uint256",
                    "name": "balance",
                    "type": "uint256"
                },
                {
                    "internalType": "bool",
                    "name": "doesExist",
                    "type": "bool"
                }
            ],
            "stateMutability": "view",
            "type": "function"
        },
        {
            "inputs": [],
            "name": "bankBalance",
            "outputs": [
                {
                    "internalType": "uint256",
                    "name": "",
                    "type": "uint256"
                }
            ],
            "stateMutability": "view",
            "type": "function"
        },
        {
            "inputs": [
                {
                    "internalType": "string",
                    "name": "name",
                    "type": "string"
                },
                {
                    "internalType": "string",
                    "name": "location",
                    "type": "string"
                },
                {
                    "internalType": "address payable",
                    "name": "_creator",
                    "type": "address"
                }
            ],
            "name": "create",
            "outputs": [],
            "stateMutability": "payable",
            "type": "function"
        },
        {
            "inputs": [],
            "name": "serialNumber",
            "outputs": [
                {
                    "internalType": "uint256",
                    "name": "",
                    "type": "uint256"
                }
            ],
            "stateMutability": "view",
            "type": "function"
        }
    ],
    "bytecode": "608060405260008055600060015534801561001957600080fd5b5061064b806100296000396000f3fe60806040526004361061003f5760003560e01c806328657aa5146100445780632a0daeea1461006d5780635a9c272414610083578063f2a40db814610098575b600080fd5b34801561005057600080fd5b5061005a60005481565b6040519081526020015b60405180910390f35b34801561007957600080fd5b5061005a60015481565b61009661009136600461046b565b6100cb565b005b3480156100a457600080fd5b506100b86100b33660046104ef565b6101d3565b6040516100649796959493929190610555565b600180549060006100db836105b1565b91905055506040518060e001604052806001548152602001428152602001848152602001838152602001826001600160a01b0316815260200160028152602001600115158152506002600060015481526020019081526020016000206000820151816000015560208201518160010155604082015181600201908051906020019061016792919061032f565b506060820151805161018391600384019160209091019061032f565b5060808201516004820180546001600160a01b0319166001600160a01b0390921691909117905560a0820151600582015560c0909101516006909101805460ff1916911515919091179055505050565b6002602081905260009182526040909120805460018201549282018054919392916101fd906105da565b80601f0160208091040260200160405190810160405280929190818152602001828054610229906105da565b80156102765780601f1061024b57610100808354040283529160200191610276565b820191906000526020600020905b81548152906001019060200180831161025957829003601f168201915b50505050509080600301805461028b906105da565b80601f01602080910402602001604051908101604052809291908181526020018280546102b7906105da565b80156103045780601f106102d957610100808354040283529160200191610304565b820191906000526020600020905b8154815290600101906020018083116102e757829003601f168201915b505050506004830154600584015460069094015492936001600160a01b039091169290915060ff1687565b82805461033b906105da565b90600052602060002090601f01602090048101928261035d57600085556103a3565b82601f1061037657805160ff19168380011785556103a3565b828001600101855582156103a3579182015b828111156103a3578251825591602001919060010190610388565b506103af9291506103b3565b5090565b5b808211156103af57600081556001016103b4565b634e487b7160e01b600052604160045260246000fd5b600082601f8301126103ef57600080fd5b813567ffffffffffffffff8082111561040a5761040a6103c8565b604051601f8301601f19908116603f01168101908282118183101715610432576104326103c8565b8160405283815286602085880101111561044b57600080fd5b836020870160208301376000602085830101528094505050505092915050565b60008060006060848603121561048057600080fd5b833567ffffffffffffffff8082111561049857600080fd5b6104a4878388016103de565b945060208601359150808211156104ba57600080fd5b506104c7868287016103de565b92505060408401356001600160a01b03811681146104e457600080fd5b809150509250925092565b60006020828403121561050157600080fd5b5035919050565b6000815180845260005b8181101561052e57602081850181015186830182015201610512565b81811115610540576000602083870101525b50601f01601f19169290920160200192915050565b87815286602082015260e06040820152600061057460e0830188610508565b82810360608401526105868188610508565b6001600160a01b03969096166080840152505060a0810192909252151560c090910152949350505050565b60006000198214156105d357634e487b7160e01b600052601160045260246000fd5b5060010190565b600181811c908216806105ee57607f821691505b6020821081141561060f57634e487b7160e01b600052602260045260246000fd5b5091905056fea264697066735822122017400edbf9628c6a43f6c4c8fc00078fefc9c19315b11de7ae92213d986fcf2b64736f6c63430008090033",
    "sourcePath": "c:/Users/Akshay/Desktop/BlockC/TDoC-Ethereal/contracts/Banking.sol",
    "compiler": {
        "name": "solc",
        "version": "0.8.9+commit.e5eed63a"
    },
    "functionHashes": {
        "accounts(uint256)": "f2a40db8",
        "bankBalance()": "28657aa5",
        "create(string,string,address)": "5a9c2724",
        "serialNumber()": "2a0daeea"
    },
    "gasEstimates": {
        "creation": {
            "codeDepositCost": "322200",
            "executionCost": "10374",
            "totalCost": "332574"
        },
        "external": {
            "accounts(uint256)": "infinite",
            "bankBalance()": "2262",
            "create(string,string,address)": "infinite",
            "serialNumber()": "2284"
        }
    }
}