{
  "contractName": "TodoList",
  "abi": [
    {
      "constant": true,
      "inputs": [],
      "name": "count",
      "outputs": [
        {
          "internalType": "uint256",
          "name": "",
          "type": "uint256"
        }
      ],
      "payable": false,
      "stateMutability": "view",
      "type": "function"
    },
    {
      "constant": false,
      "inputs": [
        {
          "internalType": "bytes32",
          "name": "_info",
          "type": "bytes32"
        }
      ],
      "name": "addTodo",
      "outputs": [],
      "payable": false,
      "stateMutability": "nonpayable",
      "type": "function"
    }
  ],
  "bytecode": "0x60806040526000805534801561001457600080fd5b5061010f806100246000396000f3fe6080604052348015600f57600080fd5b506004361060325760003560e01c806306661abd146037578063da2f6460146053575b600080fd5b603d607e565b6040518082815260200191505060405180910390f35b607c60048036036020811015606757600080fd5b81019080803590602001909291905050506084565b005b60005481565b60008081548092919060010191905055506040518060400160405280828152602001600054815250600160008054815260200190815260200160002060008201518160000155602082015181600101559050505056fea265627a7a7231582029c6e839209e0a453b06bb6d35e9b70b7bb612a28fb3e886c34a063c2e7dd49464736f6c63430005100032",
  "source": "// SPDX-License-Identifier: MIT\npragma solidity >=0.4.21 <0.7.0;\n\ncontract TodoList {\n  \nuint public count=0;\n\n\nstruct Todo{\n    bytes32 info;\n    uint serialNumber;\n}\n  \nmapping(uint=>Todo) todos;\n\n  function addTodo(bytes32 _info) public {\n\n      count++;\n\n      todos[count]=Todo(_info,count);\n      \n  }\n\n\n}\n",
  "sourcePath": "C:\\Users\\Aritro\\Desktop\\ethereum\\TDoC-Ethereal\\Aritro\\contracts\\TodoList.sol",
  "compiler": {
    "name": "solc",
    "version": "0.5.16+commit.9c3226ce.Emscripten.clang"
  },
  "schemaVersion": "3.4.3",
  "updatedAt": "2021-10-28T16:58:28.334Z",
  "networkType": "ethereum",
  "devdoc": {
    "methods": {}
  },
  "userdoc": {
    "methods": {}
  }
}