{
  "contractName": "TodoList",
  "abi": [
    {
      "constant": true,
      "inputs": [],
      "name": "count",
      "outputs": [
        {
          "internalType": "uint256",
          "name": "",
          "type": "uint256"
        }
      ],
      "payable": false,
      "stateMutability": "view",
      "type": "function"
    },
    {
      "constant": true,
      "inputs": [
        {
          "internalType": "uint256",
          "name": "",
          "type": "uint256"
        }
      ],
      "name": "todos",
      "outputs": [
        {
          "internalType": "string",
          "name": "info",
          "type": "string"
        },
        {
          "internalType": "uint256",
          "name": "serialNumber",
          "type": "uint256"
        }
      ],
      "payable": false,
      "stateMutability": "view",
      "type": "function"
    },
    {
      "constant": false,
      "inputs": [
        {
          "internalType": "string",
          "name": "_info",
          "type": "string"
        }
      ],
      "name": "addTodo",
      "outputs": [],
      "payable": false,
      "stateMutability": "nonpayable",
      "type": "function"
    }
  ],
  "bytecode": "0x60806040526000805534801561001457600080fd5b506103d2806100246000396000f3fe608060405234801561001057600080fd5b50600436106100415760003560e01c806306661abd1461004657806395ffebf514610064578063bc8bc2b41461011f575b600080fd5b61004e6101cd565b6040518082815260200191505060405180910390f35b61011d6004803603602081101561007a57600080fd5b810190808035906020019064010000000081111561009757600080fd5b8201836020820111156100a957600080fd5b803590602001918460018302840111640100000000831117156100cb57600080fd5b91908080601f016020809104026020016040519081016040528093929190818152602001838380828437600081840152601f19601f8201169050808301925050505050505091929192905050506101d3565b005b61014b6004803603602081101561013557600080fd5b810190808035906020019092919050505061023c565b6040518080602001838152602001828103825284818151815260200191508051906020019080838360005b83811015610191578082015181840152602081019050610176565b50505050905090810190601f1680156101be5780820380516001836020036101000a031916815260200191505b50935050505060405180910390f35b60005481565b600080815480929190600101919050555060405180604001604052808281526020016000548152506001600080548152602001908152602001600020600082015181600001908051906020019061022b9291906102f8565b506020820151816001015590505050565b6001602052806000526040600020600091509050806000018054600181600116156101000203166002900480601f0160208091040260200160405190810160405280929190818152602001828054600181600116156101000203166002900480156102e85780601f106102bd576101008083540402835291602001916102e8565b820191906000526020600020905b8154815290600101906020018083116102cb57829003601f168201915b5050505050908060010154905082565b828054600181600116156101000203166002900490600052602060002090601f016020900481019282601f1061033957805160ff1916838001178555610367565b82800160010185558215610367579182015b8281111561036657825182559160200191906001019061034b565b5b5090506103749190610378565b5090565b61039a91905b8082111561039657600081600090555060010161037e565b5090565b9056fea265627a7a72315820b04c0eded5d798cf92a870dcb576fc8189bef129cce05fb2917f626c3e0e310b64736f6c63430005100032",
  "source": "// SPDX-License-Identifier: MIT\npragma solidity >=0.4.21 <0.7.0;\n\ncontract TodoList {\n  \nuint public count=0;\n\n\nstruct Todo{\n    string info;\n    uint serialNumber;\n}\n  \nmapping(uint=>Todo) public todos;\n\n  function addTodo(string memory  _info) public {\n\n      count++;\n\n      todos[count]=Todo(_info,count);\n\n  }\n\n\n}\n",
  "sourcePath": "C:\\Users\\Aritro\\Desktop\\ethereum\\TDoC-Ethereal\\Aritro\\contracts\\TodoList.sol",
  "compiler": {
    "name": "solc",
    "version": "0.5.16+commit.9c3226ce.Emscripten.clang"
  },
  "schemaVersion": "3.4.3",
  "updatedAt": "2021-10-28T18:49:50.162Z",
  "networkType": "ethereum",
  "devdoc": {
    "methods": {}
  },
  "userdoc": {
    "methods": {}
  }
}