{
  "contractName": "Banking",
  "abi": [
    {
      "inputs": [],
      "payable": false,
      "stateMutability": "nonpayable",
      "type": "constructor"
    },
    {
      "constant": true,
      "inputs": [
        {
          "internalType": "uint256",
          "name": "",
          "type": "uint256"
        }
      ],
      "name": "accounts",
      "outputs": [
        {
          "internalType": "uint256",
          "name": "serial",
          "type": "uint256"
        },
        {
          "internalType": "uint256",
          "name": "createdAt",
          "type": "uint256"
        },
        {
          "internalType": "string",
          "name": "name",
          "type": "string"
        },
        {
          "internalType": "string",
          "name": "location",
          "type": "string"
        },
        {
          "internalType": "address",
          "name": "creator",
          "type": "address"
        },
        {
          "internalType": "uint256",
          "name": "balance",
          "type": "uint256"
        },
        {
          "internalType": "bool",
          "name": "doesExist",
          "type": "bool"
        }
      ],
      "payable": false,
      "stateMutability": "view",
      "type": "function"
    },
    {
      "constant": true,
      "inputs": [],
      "name": "bankBalance",
      "outputs": [
        {
          "internalType": "uint256",
          "name": "",
          "type": "uint256"
        }
      ],
      "payable": false,
      "stateMutability": "view",
      "type": "function"
    },
    {
      "constant": true,
      "inputs": [],
      "name": "serialNumber",
      "outputs": [
        {
          "internalType": "uint256",
          "name": "",
          "type": "uint256"
        }
      ],
      "payable": false,
      "stateMutability": "view",
      "type": "function"
    },
    {
      "constant": false,
      "inputs": [
        {
          "internalType": "string",
          "name": "name",
          "type": "string"
        },
        {
          "internalType": "string",
          "name": "location",
          "type": "string"
        },
        {
          "internalType": "address payable",
          "name": "_creator",
          "type": "address"
        }
      ],
      "name": "createAccount",
      "outputs": [],
      "payable": true,
      "stateMutability": "payable",
      "type": "function"
    },
    {
      "constant": false,
      "inputs": [
        {
          "internalType": "uint256",
          "name": "_serial",
          "type": "uint256"
        },
        {
          "internalType": "uint256",
          "name": "amount",
          "type": "uint256"
        },
        {
          "internalType": "address payable",
          "name": "creator",
          "type": "address"
        }
      ],
      "name": "addBal",
      "outputs": [],
      "payable": true,
      "stateMutability": "payable",
      "type": "function"
    },
    {
      "constant": false,
      "inputs": [
        {
          "internalType": "uint256",
          "name": "_serial",
          "type": "uint256"
        },
        {
          "internalType": "uint256",
          "name": "amount",
          "type": "uint256"
        },
        {
          "internalType": "address payable",
          "name": "creator",
          "type": "address"
        }
      ],
      "name": "withdrawBal",
      "outputs": [
        {
          "internalType": "bool",
          "name": "_success",
          "type": "bool"
        }
      ],
      "payable": false,
      "stateMutability": "nonpayable",
      "type": "function"
    },
    {
      "constant": false,
      "inputs": [
        {
          "internalType": "uint256",
          "name": "_serial",
          "type": "uint256"
        },
        {
          "internalType": "uint256",
          "name": "serial_2",
          "type": "uint256"
        },
        {
          "internalType": "uint256",
          "name": "amount",
          "type": "uint256"
        }
      ],
      "name": "transferBal",
      "outputs": [],
      "payable": true,
      "stateMutability": "payable",
      "type": "function"
    }
  ],
  "bytecode": "0x608060405260008055600060015534801561001957600080fd5b506040518060e00160405280600081526020014281526020016040518060400160405280600881526020017f457468657265616c00000000000000000000000000000000000000000000000081525081526020016040518060400160405280600c81526020017f4e4954204475726761707572000000000000000000000000000000000000000081525081526020013073ffffffffffffffffffffffffffffffffffffffff168152602001600281526020016001151581525060026000808152602001908152602001600020600082015181600001556020820151816001015560408201518160020190805190602001906101159291906101ac565b5060608201518160030190805190602001906101329291906101ac565b5060808201518160040160006101000a81548173ffffffffffffffffffffffffffffffffffffffff021916908373ffffffffffffffffffffffffffffffffffffffff16021790555060a0820151816005015560c08201518160060160006101000a81548160ff021916908315150217905550905050610251565b828054600181600116156101000203166002900490600052602060002090601f016020900481019282601f106101ed57805160ff191683800117855561021b565b8280016001018555821561021b579182015b8281111561021a5782518255916020019190600101906101ff565b5b509050610228919061022c565b5090565b61024e91905b8082111561024a576000816000905550600101610232565b5090565b90565b610c8a806102606000396000f3fe6080604052600436106100705760003560e01c80632a0daeea1161004e5780632a0daeea146101755780633cf7197f146101a057806341d3d0ab146101e2578063f2a40db81461035457610070565b80630a0f0b65146100755780632767d620146100f257806328657aa51461014a575b600080fd5b34801561008157600080fd5b506100d86004803603606081101561009857600080fd5b810190808035906020019092919080359060200190929190803573ffffffffffffffffffffffffffffffffffffffff1690602001909291905050506104c7565b604051808215151515815260200191505060405180910390f35b6101486004803603606081101561010857600080fd5b810190808035906020019092919080359060200190929190803573ffffffffffffffffffffffffffffffffffffffff169060200190929190505050610614565b005b34801561015657600080fd5b5061015f610713565b6040518082815260200191505060405180910390f35b34801561018157600080fd5b5061018a610719565b6040518082815260200191505060405180910390f35b6101e0600480360360608110156101b657600080fd5b8101908080359060200190929190803590602001909291908035906020019092919050505061071f565b005b610352600480360360608110156101f857600080fd5b810190808035906020019064010000000081111561021557600080fd5b82018360208201111561022757600080fd5b8035906020019184600183028401116401000000008311171561024957600080fd5b91908080601f016020809104026020016040519081016040528093929190818152602001838380828437600081840152601f19601f820116905080830192505050505050509192919290803590602001906401000000008111156102ac57600080fd5b8201836020820111156102be57600080fd5b803590602001918460018302840111640100000000831117156102e057600080fd5b91908080601f016020809104026020016040519081016040528093929190818152602001838380828437600081840152601f19601f820116905080830192505050505050509192919290803573ffffffffffffffffffffffffffffffffffffffff169060200190929190505050610832565b005b34801561036057600080fd5b5061038d6004803603602081101561037757600080fd5b8101908080359060200190929190505050610a11565b6040518088815260200187815260200180602001806020018673ffffffffffffffffffffffffffffffffffffffff1673ffffffffffffffffffffffffffffffffffffffff16815260200185815260200184151515158152602001838103835288818151815260200191508051906020019080838360005b8381101561041f578082015181840152602081019050610404565b50505050905090810190601f16801561044c5780820380516001836020036101000a031916815260200191505b50838103825287818151815260200191508051906020019080838360005b8381101561048557808201518184015260208101905061046a565b50505050905090810190601f1680156104b25780820380516001836020036101000a031916815260200191505b50995050505050505050505060405180910390f35b60006001670de0b6b3a764000084816104dc57fe5b040160026000868152602001908152602001600020600501541061059f578173ffffffffffffffffffffffffffffffffffffffff166108fc849081150290604051600060405180830381858888f19350505050158015610540573d6000803e3d6000fd5b50670de0b6b3a7640000838161055257fe5b046002600086815260200190815260200160002060050160008282540392505081905550670de0b6b3a7640000838161058757fe5b0460008082825403925050819055506001905061060d565b6040517f08c379a00000000000000000000000000000000000000000000000000000000081526004018080602001828103825260128152602001807f496e73756666696369656e742066756e6473000000000000000000000000000081525060200191505060405180910390fd5b9392505050565b6001670de0b6b3a7640000838161062757fe5b04018173ffffffffffffffffffffffffffffffffffffffff1631106106a057670de0b6b3a7640000828161065757fe5b046002600085815260200190815260200160002060050160008282540192505081905550670de0b6b3a7640000828161068c57fe5b04600080828254019250508190555061070e565b6040517f08c379a00000000000000000000000000000000000000000000000000000000081526004018080602001828103825260128152602001807f496e73756666696369656e742066756e6473000000000000000000000000000081525060200191505060405180910390fd5b505050565b60005481565b60015481565b6001670de0b6b3a7640000828161073257fe5b04016002600085815260200190815260200160002060050154106107bf57670de0b6b3a7640000818161076157fe5b046002600085815260200190815260200160002060050160008282540392505081905550670de0b6b3a7640000818161079657fe5b04600260008481526020019081526020016000206005016000828254019250508190555061082d565b6040517f08c379a00000000000000000000000000000000000000000000000000000000081526004018080602001828103825260138152602001807f496e73756666696369656e742066756e6473210000000000000000000000000081525060200191505060405180910390fd5b505050565b60038173ffffffffffffffffffffffffffffffffffffffff16311061099e576001600081548092919060010191905055506040518060e0016040528060015481526020014281526020018481526020018381526020018273ffffffffffffffffffffffffffffffffffffffff1681526020016002815260200160011515815250600260006001548152602001908152602001600020600082015181600001556020820151816001015560408201518160020190805190602001906108f7929190610bb0565b506060820151816003019080519060200190610914929190610bb0565b5060808201518160040160006101000a81548173ffffffffffffffffffffffffffffffffffffffff021916908373ffffffffffffffffffffffffffffffffffffffff16021790555060a0820151816005015560c08201518160060160006101000a81548160ff02191690831515021790555090505060026000808282540192505081905550610a0c565b6040517f08c379a00000000000000000000000000000000000000000000000000000000081526004018080602001828103825260128152602001807f496e73756666696369656e742066756e6473000000000000000000000000000081525060200191505060405180910390fd5b505050565b6002602052806000526040600020600091509050806000015490806001015490806002018054600181600116156101000203166002900480601f016020809104026020016040519081016040528092919081815260200182805460018160011615610100020316600290048015610ac95780601f10610a9e57610100808354040283529160200191610ac9565b820191906000526020600020905b815481529060010190602001808311610aac57829003601f168201915b505050505090806003018054600181600116156101000203166002900480601f016020809104026020016040519081016040528092919081815260200182805460018160011615610100020316600290048015610b675780601f10610b3c57610100808354040283529160200191610b67565b820191906000526020600020905b815481529060010190602001808311610b4a57829003601f168201915b5050505050908060040160009054906101000a900473ffffffffffffffffffffffffffffffffffffffff16908060050154908060060160009054906101000a900460ff16905087565b828054600181600116156101000203166002900490600052602060002090601f016020900481019282601f10610bf157805160ff1916838001178555610c1f565b82800160010185558215610c1f579182015b82811115610c1e578251825591602001919060010190610c03565b5b509050610c2c9190610c30565b5090565b610c5291905b80821115610c4e576000816000905550600101610c36565b5090565b9056fea265627a7a72315820c7ca3eb87410f0e2e2bba4822a659e26534c12d3d84c128f7507d5e28091d02a64736f6c63430005100032",
  "source": "pragma solidity >0.5.1;\r\n\r\ncontract Banking {\r\n    // int256 public a = 10;\r\n    // string demostring = \"Hello World\";\r\n    // uint256 public c = 0;\r\n    uint256 public bankBalance = 0;\r\n    uint256 public serialNumber = 0;\r\n\r\n    struct Account {\r\n        uint256 serial;\r\n        uint256 createdAt;\r\n        string name;\r\n        string location;\r\n        address creator;\r\n        uint256 balance;\r\n        bool doesExist;\r\n    }\r\n\r\n    constructor() public{\r\n        accounts[0]=Account(\r\n            0,\r\n            block.timestamp,\r\n            \"Ethereal\",\r\n            \"NIT Durgapur\",\r\n            address(this),\r\n            2,\r\n            true\r\n            );\r\n        }\r\n\r\n    mapping(uint256 => Account) public accounts;\r\n\r\n    // function get() public view returns (string memory) {\r\n    //     return demostring;\r\n    // }\r\n\r\n    function createAccount(string memory name,string memory location,address payable _creator)\r\n        public payable{\r\n            if(_creator.balance>=3)\r\n            {\r\n        serialNumber++; \r\n                accounts[serialNumber] = Account(serialNumber,block.timestamp,name,location,_creator,2,true);\r\n            bankBalance+=2;\r\n        }\r\n        else{\r\n            revert(\"Insufficient funds\");\r\n        }\r\n        \r\n    }\r\n\r\nfunction addBal(uint _serial, uint amount, address payable creator) \r\npublic payable \r\n{\r\n    if(creator.balance>=amount/1000000000000000000+1)\r\n    {\r\n        accounts[_serial].balance+=amount/1000000000000000000;\r\n        bankBalance+=amount/1000000000000000000;\r\n    }else{\r\n        revert(\"Insufficient funds\");\r\n    }\r\n}\r\nfunction withdrawBal(uint _serial, uint amount, address payable creator) \r\nexternal returns(bool _success)\r\n{\r\n    if(accounts[_serial].balance>=amount/1000000000000000000+1)\r\n    {\r\n        creator.transfer(amount);\r\n        accounts[_serial].balance-=amount/1000000000000000000;\r\n        bankBalance-=amount/1000000000000000000;\r\n        return true;\r\n    }else{\r\n        revert(\"Insufficient funds\");\r\n    }\r\n}\r\n\r\nfunction transferBal(uint _serial, uint serial_2, uint amount)\r\n    public payable{\r\n        if(accounts[_serial].balance>=amount/1000000000000000000+1)\r\n        {\r\n            accounts[_serial].balance-=amount/1000000000000000000;\r\n            accounts[serial_2].balance+=amount/1000000000000000000;\r\n        }\r\n        else\r\n        {\r\n            revert(\"Insufficient funds!\");\r\n        }\r\n    }\r\n}\r\n",
  "sourcePath": "C:\\Users\\Akshay\\Desktop\\12\\TDoC-Ethereal\\Akshay\\contracts\\Banking.sol",
  "compiler": {
    "name": "solc",
    "version": "0.5.16+commit.9c3226ce.Emscripten.clang"
  },
  "schemaVersion": "3.4.3",
  "updatedAt": "2021-10-28T09:41:27.449Z",
  "networkType": "ethereum",
  "devdoc": {
    "methods": {}
  },
  "userdoc": {
    "methods": {}
  }
}