{
  "contractName": "Banking",
  "abi": [
    {
      "inputs": [],
      "payable": false,
      "stateMutability": "nonpayable",
      "type": "constructor"
    },
    {
      "constant": true,
      "inputs": [
        {
          "internalType": "uint256",
          "name": "",
          "type": "uint256"
        }
      ],
      "name": "accounts",
      "outputs": [
        {
          "internalType": "uint256",
          "name": "serial",
          "type": "uint256"
        },
        {
          "internalType": "uint256",
          "name": "createdAt",
          "type": "uint256"
        },
        {
          "internalType": "string",
          "name": "name",
          "type": "string"
        },
        {
          "internalType": "string",
          "name": "location",
          "type": "string"
        },
        {
          "internalType": "address",
          "name": "creator",
          "type": "address"
        },
        {
          "internalType": "uint256",
          "name": "balance",
          "type": "uint256"
        },
        {
          "internalType": "bool",
          "name": "doesExist",
          "type": "bool"
        }
      ],
      "payable": false,
      "stateMutability": "view",
      "type": "function"
    },
    {
      "constant": true,
      "inputs": [],
      "name": "bankBalance",
      "outputs": [
        {
          "internalType": "uint256",
          "name": "",
          "type": "uint256"
        }
      ],
      "payable": false,
      "stateMutability": "view",
      "type": "function"
    },
    {
      "constant": true,
      "inputs": [],
      "name": "serialNumber",
      "outputs": [
        {
          "internalType": "uint256",
          "name": "",
          "type": "uint256"
        }
      ],
      "payable": false,
      "stateMutability": "view",
      "type": "function"
    },
    {
      "constant": false,
      "inputs": [
        {
          "internalType": "string",
          "name": "name",
          "type": "string"
        },
        {
          "internalType": "string",
          "name": "location",
          "type": "string"
        },
        {
          "internalType": "address payable",
          "name": "_creator",
          "type": "address"
        }
      ],
      "name": "createAccount",
      "outputs": [],
      "payable": true,
      "stateMutability": "payable",
      "type": "function"
    },
    {
      "constant": false,
      "inputs": [
        {
          "internalType": "uint256",
          "name": "_serial",
          "type": "uint256"
        },
        {
          "internalType": "uint256",
          "name": "amount",
          "type": "uint256"
        },
        {
          "internalType": "address payable",
          "name": "creator",
          "type": "address"
        }
      ],
      "name": "addBal",
      "outputs": [],
      "payable": true,
      "stateMutability": "payable",
      "type": "function"
    },
    {
      "constant": false,
      "inputs": [
        {
          "internalType": "uint256",
          "name": "_serial",
          "type": "uint256"
        },
        {
          "internalType": "uint256",
          "name": "amount",
          "type": "uint256"
        },
        {
          "internalType": "address payable",
          "name": "creator",
          "type": "address"
        }
      ],
      "name": "withdrawBal",
      "outputs": [],
      "payable": true,
      "stateMutability": "payable",
      "type": "function"
    }
  ],
  "bytecode": "0x608060405260008055600060015534801561001957600080fd5b506040518060e00160405280600081526020014281526020016040518060400160405280600881526020017f457468657265616c00000000000000000000000000000000000000000000000081525081526020016040518060400160405280600c81526020017f4e4954204475726761707572000000000000000000000000000000000000000081525081526020013073ffffffffffffffffffffffffffffffffffffffff168152602001600281526020016001151581525060026000808152602001908152602001600020600082015181600001556020820151816001015560408201518160020190805190602001906101159291906101ac565b5060608201518160030190805190602001906101329291906101ac565b5060808201518160040160006101000a81548173ffffffffffffffffffffffffffffffffffffffff021916908373ffffffffffffffffffffffffffffffffffffffff16021790555060a0820151816005015560c08201518160060160006101000a81548160ff021916908315150217905550905050610251565b828054600181600116156101000203166002900490600052602060002090601f016020900481019282601f106101ed57805160ff191683800117855561021b565b8280016001018555821561021b579182015b8281111561021a5782518255916020019190600101906101ff565b5b509050610228919061022c565b5090565b61024e91905b8082111561024a576000816000905550600101610232565b5090565b90565b610aa7806102606000396000f3fe6080604052600436106100555760003560e01c80630a0f0b651461005a5780632767d620146100b257806328657aa51461010a5780632a0daeea1461013557806341d3d0ab14610160578063f2a40db8146102d2575b600080fd5b6100b06004803603606081101561007057600080fd5b810190808035906020019092919080359060200190929190803573ffffffffffffffffffffffffffffffffffffffff169060200190929190505050610445565b005b610108600480360360608110156100c857600080fd5b810190808035906020019092919080359060200190929190803573ffffffffffffffffffffffffffffffffffffffff169060200190929190505050610544565b005b34801561011657600080fd5b5061011f610643565b6040518082815260200191505060405180910390f35b34801561014157600080fd5b5061014a610649565b6040518082815260200191505060405180910390f35b6102d06004803603606081101561017657600080fd5b810190808035906020019064010000000081111561019357600080fd5b8201836020820111156101a557600080fd5b803590602001918460018302840111640100000000831117156101c757600080fd5b91908080601f016020809104026020016040519081016040528093929190818152602001838380828437600081840152601f19601f8201169050808301925050505050505091929192908035906020019064010000000081111561022a57600080fd5b82018360208201111561023c57600080fd5b8035906020019184600183028401116401000000008311171561025e57600080fd5b91908080601f016020809104026020016040519081016040528093929190818152602001838380828437600081840152601f19601f820116905080830192505050505050509192919290803573ffffffffffffffffffffffffffffffffffffffff16906020019092919050505061064f565b005b3480156102de57600080fd5b5061030b600480360360208110156102f557600080fd5b810190808035906020019092919050505061082e565b6040518088815260200187815260200180602001806020018673ffffffffffffffffffffffffffffffffffffffff1673ffffffffffffffffffffffffffffffffffffffff16815260200185815260200184151515158152602001838103835288818151815260200191508051906020019080838360005b8381101561039d578082015181840152602081019050610382565b50505050905090810190601f1680156103ca5780820380516001836020036101000a031916815260200191505b50838103825287818151815260200191508051906020019080838360005b838110156104035780820151818401526020810190506103e8565b50505050905090810190601f1680156104305780820380516001836020036101000a031916815260200191505b50995050505050505050505060405180910390f35b6001670de0b6b3a7640000838161045857fe5b04018173ffffffffffffffffffffffffffffffffffffffff1631106104d157670de0b6b3a7640000828161048857fe5b046002600085815260200190815260200160002060050160008282540392505081905550670de0b6b3a764000082816104bd57fe5b04600080828254039250508190555061053f565b6040517f08c379a00000000000000000000000000000000000000000000000000000000081526004018080602001828103825260128152602001807f496e73756666696369656e742066756e6473000000000000000000000000000081525060200191505060405180910390fd5b505050565b6001670de0b6b3a7640000838161055757fe5b04018173ffffffffffffffffffffffffffffffffffffffff1631106105d057670de0b6b3a7640000828161058757fe5b046002600085815260200190815260200160002060050160008282540192505081905550670de0b6b3a764000082816105bc57fe5b04600080828254019250508190555061063e565b6040517f08c379a00000000000000000000000000000000000000000000000000000000081526004018080602001828103825260128152602001807f496e73756666696369656e742066756e6473000000000000000000000000000081525060200191505060405180910390fd5b505050565b60005481565b60015481565b60038173ffffffffffffffffffffffffffffffffffffffff1631106107bb576001600081548092919060010191905055506040518060e0016040528060015481526020014281526020018481526020018381526020018273ffffffffffffffffffffffffffffffffffffffff1681526020016002815260200160011515815250600260006001548152602001908152602001600020600082015181600001556020820151816001015560408201518160020190805190602001906107149291906109cd565b5060608201518160030190805190602001906107319291906109cd565b5060808201518160040160006101000a81548173ffffffffffffffffffffffffffffffffffffffff021916908373ffffffffffffffffffffffffffffffffffffffff16021790555060a0820151816005015560c08201518160060160006101000a81548160ff02191690831515021790555090505060026000808282540192505081905550610829565b6040517f08c379a00000000000000000000000000000000000000000000000000000000081526004018080602001828103825260128152602001807f496e73756666696369656e742066756e6473000000000000000000000000000081525060200191505060405180910390fd5b505050565b6002602052806000526040600020600091509050806000015490806001015490806002018054600181600116156101000203166002900480601f0160208091040260200160405190810160405280929190818152602001828054600181600116156101000203166002900480156108e65780601f106108bb576101008083540402835291602001916108e6565b820191906000526020600020905b8154815290600101906020018083116108c957829003601f168201915b505050505090806003018054600181600116156101000203166002900480601f0160208091040260200160405190810160405280929190818152602001828054600181600116156101000203166002900480156109845780601f1061095957610100808354040283529160200191610984565b820191906000526020600020905b81548152906001019060200180831161096757829003601f168201915b5050505050908060040160009054906101000a900473ffffffffffffffffffffffffffffffffffffffff16908060050154908060060160009054906101000a900460ff16905087565b828054600181600116156101000203166002900490600052602060002090601f016020900481019282601f10610a0e57805160ff1916838001178555610a3c565b82800160010185558215610a3c579182015b82811115610a3b578251825591602001919060010190610a20565b5b509050610a499190610a4d565b5090565b610a6f91905b80821115610a6b576000816000905550600101610a53565b5090565b9056fea265627a7a72315820436234208c74cd8b682819c90fb1b8cc9074fdbee9b324fd0f5294a10acf060d64736f6c63430005100032",
  "source": "pragma solidity >0.5.1;\r\n\r\ncontract Banking {\r\n    // int256 public a = 10;\r\n    // string demostring = \"Hello World\";\r\n    // uint256 public c = 0;\r\n    uint256 public bankBalance = 0;\r\n    uint256 public serialNumber = 0;\r\n\r\n    struct Account {\r\n        uint256 serial;\r\n        uint256 createdAt;\r\n        string name;\r\n        string location;\r\n        address creator;\r\n        uint256 balance;\r\n        bool doesExist;\r\n    }\r\n\r\n    constructor() public{\r\n        accounts[0]=Account(\r\n            0,\r\n            block.timestamp,\r\n            \"Ethereal\",\r\n            \"NIT Durgapur\",\r\n            address(this),\r\n            2,\r\n            true\r\n            );\r\n        }\r\n\r\n    mapping(uint256 => Account) public accounts;\r\n\r\n    // function get() public view returns (string memory) {\r\n    //     return demostring;\r\n    // }\r\n\r\n    function createAccount(string memory name,string memory location,address payable _creator)\r\n        public payable{\r\n            if(_creator.balance>=3)\r\n            {\r\n        serialNumber++; \r\n                accounts[serialNumber] = Account(serialNumber,block.timestamp,name,location,_creator,2,true);\r\n            bankBalance+=2;\r\n        }\r\n        else{\r\n            revert(\"Insufficient funds\");\r\n        }\r\n        \r\n    }\r\n\r\nfunction addBal(uint _serial, uint amount, address payable creator) \r\npublic payable \r\n{\r\n    if(creator.balance>=amount/1000000000000000000+1)\r\n    {\r\n        accounts[_serial].balance+=amount/1000000000000000000;\r\n        bankBalance+=amount/1000000000000000000;\r\n    }else{\r\n        revert(\"Insufficient funds\");\r\n    }\r\n}\r\nfunction withdrawBal(uint _serial, uint amount, address payable creator) \r\npublic payable \r\n{\r\n    if(creator.balance>=amount/1000000000000000000+1)\r\n    {\r\n        accounts[_serial].balance-=amount/1000000000000000000;\r\n        bankBalance-=amount/1000000000000000000;\r\n    }else{\r\n        revert(\"Insufficient funds\");\r\n    }\r\n}\r\n    // function getContractBalance()\r\n}\r\n",
  "sourcePath": "C:\\Users\\Akshay\\Desktop\\Akshay Assignment Day 5\\Akshay - Task 4\\TDoC-Ethereal\\Akshay - Task 4\\contracts\\Banking.sol",
  "compiler": {
    "name": "solc",
    "version": "0.5.16+commit.9c3226ce.Emscripten.clang"
  },
  "schemaVersion": "3.4.3",
  "updatedAt": "2021-10-27T22:41:32.111Z",
  "networkType": "ethereum",
  "devdoc": {
    "methods": {}
  },
  "userdoc": {
    "methods": {}
  }
}