{
  "contractName": "Banking",
  "abi": [
    {
      "inputs": [],
      "payable": false,
      "stateMutability": "nonpayable",
      "type": "constructor"
    },
    {
      "constant": true,
      "inputs": [
        {
          "internalType": "uint256",
          "name": "",
          "type": "uint256"
        }
      ],
      "name": "accounts",
      "outputs": [
        {
          "internalType": "uint256",
          "name": "serial",
          "type": "uint256"
        },
        {
          "internalType": "uint256",
          "name": "createdAt",
          "type": "uint256"
        },
        {
          "internalType": "string",
          "name": "name",
          "type": "string"
        },
        {
          "internalType": "string",
          "name": "location",
          "type": "string"
        },
        {
          "internalType": "address",
          "name": "creator",
          "type": "address"
        },
        {
          "internalType": "uint256",
          "name": "balance",
          "type": "uint256"
        },
        {
          "internalType": "bool",
          "name": "doesExist",
          "type": "bool"
        }
      ],
      "payable": false,
      "stateMutability": "view",
      "type": "function"
    },
    {
      "constant": true,
      "inputs": [],
      "name": "bankBalance",
      "outputs": [
        {
          "internalType": "uint256",
          "name": "",
          "type": "uint256"
        }
      ],
      "payable": false,
      "stateMutability": "view",
      "type": "function"
    },
    {
      "constant": true,
      "inputs": [],
      "name": "serialNumber",
      "outputs": [
        {
          "internalType": "uint256",
          "name": "",
          "type": "uint256"
        }
      ],
      "payable": false,
      "stateMutability": "view",
      "type": "function"
    },
    {
      "constant": true,
      "inputs": [],
      "name": "transacNum",
      "outputs": [
        {
          "internalType": "uint256",
          "name": "",
          "type": "uint256"
        }
      ],
      "payable": false,
      "stateMutability": "view",
      "type": "function"
    },
    {
      "constant": true,
      "inputs": [
        {
          "internalType": "uint256",
          "name": "",
          "type": "uint256"
        }
      ],
      "name": "transactions",
      "outputs": [
        {
          "internalType": "uint256",
          "name": "transacNum",
          "type": "uint256"
        },
        {
          "internalType": "uint256",
          "name": "amountTrans",
          "type": "uint256"
        },
        {
          "internalType": "string",
          "name": "transacType",
          "type": "string"
        },
        {
          "internalType": "uint256",
          "name": "currentBalance",
          "type": "uint256"
        },
        {
          "internalType": "uint256",
          "name": "transactedAt",
          "type": "uint256"
        },
        {
          "internalType": "uint256",
          "name": "accountSerial",
          "type": "uint256"
        }
      ],
      "payable": false,
      "stateMutability": "view",
      "type": "function"
    },
    {
      "constant": false,
      "inputs": [
        {
          "internalType": "string",
          "name": "name",
          "type": "string"
        },
        {
          "internalType": "string",
          "name": "location",
          "type": "string"
        },
        {
          "internalType": "address payable",
          "name": "_creator",
          "type": "address"
        }
      ],
      "name": "createAccount",
      "outputs": [],
      "payable": true,
      "stateMutability": "payable",
      "type": "function"
    },
    {
      "constant": false,
      "inputs": [
        {
          "internalType": "uint256",
          "name": "_serial",
          "type": "uint256"
        },
        {
          "internalType": "uint256",
          "name": "amount",
          "type": "uint256"
        },
        {
          "internalType": "address payable",
          "name": "creator",
          "type": "address"
        }
      ],
      "name": "addBal",
      "outputs": [],
      "payable": true,
      "stateMutability": "payable",
      "type": "function"
    },
    {
      "constant": false,
      "inputs": [
        {
          "internalType": "uint256",
          "name": "_serial",
          "type": "uint256"
        },
        {
          "internalType": "uint256",
          "name": "amount",
          "type": "uint256"
        },
        {
          "internalType": "address payable",
          "name": "creator",
          "type": "address"
        }
      ],
      "name": "withdrawBal",
      "outputs": [
        {
          "internalType": "bool",
          "name": "_success",
          "type": "bool"
        }
      ],
      "payable": false,
      "stateMutability": "nonpayable",
      "type": "function"
    },
    {
      "constant": false,
      "inputs": [
        {
          "internalType": "uint256",
          "name": "_serial",
          "type": "uint256"
        },
        {
          "internalType": "uint256",
          "name": "serial_2",
          "type": "uint256"
        },
        {
          "internalType": "uint256",
          "name": "amount",
          "type": "uint256"
        }
      ],
      "name": "transferBal",
      "outputs": [],
      "payable": true,
      "stateMutability": "payable",
      "type": "function"
    }
  ],
  "bytecode": "0x608060405260008055600060015560006002553480156200001f57600080fd5b506040518060e00160405280600081526020014281526020016040518060400160405280600881526020017f457468657265616c00000000000000000000000000000000000000000000000081525081526020016040518060400160405280600c81526020017f4e4954204475726761707572000000000000000000000000000000000000000081525081526020013073ffffffffffffffffffffffffffffffffffffffff168152602001600281526020016001151581525060036000808152602001908152602001600020600082015181600001556020820151816001015560408201518160020190805190602001906200011d929190620001b7565b5060608201518160030190805190602001906200013c929190620001b7565b5060808201518160040160006101000a81548173ffffffffffffffffffffffffffffffffffffffff021916908373ffffffffffffffffffffffffffffffffffffffff16021790555060a0820151816005015560c08201518160060160006101000a81548160ff02191690831515021790555090505062000266565b828054600181600116156101000203166002900490600052602060002090601f016020900481019282601f10620001fa57805160ff19168380011785556200022b565b828001600101855582156200022b579182015b828111156200022a5782518255916020019190600101906200020d565b5b5090506200023a91906200023e565b5090565b6200026391905b808211156200025f57600081600090555060010162000245565b5090565b90565b61131680620002766000396000f3fe6080604052600436106100865760003560e01c80633cf7197f116100595780633cf7197f146101b657806341d3d0ab146101f85780636b17aa831461036a5780639ace38c214610395578063f2a40db81461046c57610086565b80630a0f0b651461008b5780632767d6201461010857806328657aa5146101605780632a0daeea1461018b575b600080fd5b34801561009757600080fd5b506100ee600480360360608110156100ae57600080fd5b810190808035906020019092919080359060200190929190803573ffffffffffffffffffffffffffffffffffffffff1690602001909291905050506105df565b604051808215151515815260200191505060405180910390f35b61015e6004803603606081101561011e57600080fd5b810190808035906020019092919080359060200190929190803573ffffffffffffffffffffffffffffffffffffffff16906020019092919050505061081f565b005b34801561016c57600080fd5b50610175610a11565b6040518082815260200191505060405180910390f35b34801561019757600080fd5b506101a0610a17565b6040518082815260200191505060405180910390f35b6101f6600480360360608110156101cc57600080fd5b81019080803590602001909291908035906020019092919080359060200190929190505050610a1d565b005b6103686004803603606081101561020e57600080fd5b810190808035906020019064010000000081111561022b57600080fd5b82018360208201111561023d57600080fd5b8035906020019184600183028401116401000000008311171561025f57600080fd5b91908080601f016020809104026020016040519081016040528093929190818152602001838380828437600081840152601f19601f820116905080830192505050505050509192919290803590602001906401000000008111156102c257600080fd5b8201836020820111156102d457600080fd5b803590602001918460018302840111640100000000831117156102f657600080fd5b91908080601f016020809104026020016040519081016040528093929190818152602001838380828437600081840152601f19601f820116905080830192505050505050509192919290803573ffffffffffffffffffffffffffffffffffffffff169060200190929190505050610d16565b005b34801561037657600080fd5b5061037f610fc3565b6040518082815260200191505060405180910390f35b3480156103a157600080fd5b506103ce600480360360208110156103b857600080fd5b8101908080359060200190929190505050610fc9565b6040518087815260200186815260200180602001858152602001848152602001838152602001828103825286818151815260200191508051906020019080838360005b8381101561042c578082015181840152602081019050610411565b50505050905090810190601f1680156104595780820380516001836020036101000a031916815260200191505b5097505050505050505060405180910390f35b34801561047857600080fd5b506104a56004803603602081101561048f57600080fd5b810190808035906020019092919050505061109d565b6040518088815260200187815260200180602001806020018673ffffffffffffffffffffffffffffffffffffffff1673ffffffffffffffffffffffffffffffffffffffff16815260200185815260200184151515158152602001838103835288818151815260200191508051906020019080838360005b8381101561053757808201518184015260208101905061051c565b50505050905090810190601f1680156105645780820380516001836020036101000a031916815260200191505b50838103825287818151815260200191508051906020019080838360005b8381101561059d578082015181840152602081019050610582565b50505050905090810190601f1680156105ca5780820380516001836020036101000a031916815260200191505b50995050505050505050505060405180910390f35b60006001670de0b6b3a764000084816105f457fe5b04016003600086815260200190815260200160002060050154106107aa578173ffffffffffffffffffffffffffffffffffffffff166108fc849081150290604051600060405180830381858888f19350505050158015610658573d6000803e3d6000fd5b50670de0b6b3a7640000838161066a57fe5b046003600086815260200190815260200160002060050160008282540392505081905550670de0b6b3a7640000838161069f57fe5b0460008082825403925050819055506002600081548092919060010191905055506040518060c0016040528060025481526020018481526020016040518060400160405280600881526020017f5769746864726177000000000000000000000000000000000000000000000000815250815260200160036000878152602001908152602001600020600501548152602001428152602001858152506004600060025481526020019081526020016000206000820151816000015560208201518160010155604082015181600201908051906020019061077f92919061123c565b50606082015181600301556080820151816004015560a0820151816005015590505060019050610818565b6040517f08c379a00000000000000000000000000000000000000000000000000000000081526004018080602001828103825260128152602001807f496e73756666696369656e742066756e6473000000000000000000000000000081525060200191505060405180910390fd5b9392505050565b6001670de0b6b3a7640000838161083257fe5b04018173ffffffffffffffffffffffffffffffffffffffff16311061099e57670de0b6b3a7640000828161086257fe5b046003600085815260200190815260200160002060050160008282540192505081905550670de0b6b3a7640000828161089757fe5b0460008082825401925050819055506002600081548092919060010191905055506040518060c0016040528060025481526020018381526020016040518060400160405280600781526020017f4465706f73697400000000000000000000000000000000000000000000000000815250815260200160036000868152602001908152602001600020600501548152602001428152602001848152506004600060025481526020019081526020016000206000820151816000015560208201518160010155604082015181600201908051906020019061097792919061123c565b50606082015181600301556080820151816004015560a08201518160050155905050610a0c565b6040517f08c379a00000000000000000000000000000000000000000000000000000000081526004018080602001828103825260128152602001807f496e73756666696369656e742066756e6473000000000000000000000000000081525060200191505060405180910390fd5b505050565b60005481565b60015481565b6001670de0b6b3a76400008281610a3057fe5b0401600360008581526020019081526020016000206005015410610ca357670de0b6b3a76400008181610a5f57fe5b0460036000858152602001908152602001600020600501600082825403925050819055506002600081548092919060010191905055506040518060c0016040528060025481526020018281526020016040518060400160405280601e81526020017f5472616e7366657272656420746f20616e6f74686572206163636f756e7400008152508152602001600360008681526020019081526020016000206005015481526020014281526020018481525060046000600254815260200190815260200160002060008201518160000155602082015181600101556040820151816002019080519060200190610b5492919061123c565b50606082015181600301556080820151816004015560a08201518160050155905050670de0b6b3a76400008181610b8757fe5b0460036000848152602001908152602001600020600501600082825401925050819055506002600081548092919060010191905055506040518060c0016040528060025481526020018281526020016040518060400160405280601e81526020017f4465706f73697465642066726f6d20616e6f74686572206163636f756e7400008152508152602001600360008681526020019081526020016000206005015481526020014281526020018381525060046000600254815260200190815260200160002060008201518160000155602082015181600101556040820151816002019080519060200190610c7c92919061123c565b50606082015181600301556080820151816004015560a08201518160050155905050610d11565b6040517f08c379a00000000000000000000000000000000000000000000000000000000081526004018080602001828103825260138152602001807f496e73756666696369656e742066756e6473210000000000000000000000000081525060200191505060405180910390fd5b505050565b60038173ffffffffffffffffffffffffffffffffffffffff163110610f50576001600081548092919060010191905055506040518060e0016040528060015481526020014281526020018481526020018381526020018273ffffffffffffffffffffffffffffffffffffffff168152602001600281526020016001151581525060036000600154815260200190815260200160002060008201518160000155602082015181600101556040820151816002019080519060200190610ddb92919061123c565b506060820151816003019080519060200190610df892919061123c565b5060808201518160040160006101000a81548173ffffffffffffffffffffffffffffffffffffffff021916908373ffffffffffffffffffffffffffffffffffffffff16021790555060a0820151816005015560c08201518160060160006101000a81548160ff021916908315150217905550905050600260008082825401925050819055506040518060c0016040528060008152602001600281526020016040518060400160405280600781526020017f446570736f69740000000000000000000000000000000000000000000000000081525081526020016002815260200142815260200160015481525060046000600154815260200190815260200160002060008201518160000155602082015181600101556040820151816002019080519060200190610f2992919061123c565b50606082015181600301556080820151816004015560a08201518160050155905050610fbe565b6040517f08c379a00000000000000000000000000000000000000000000000000000000081526004018080602001828103825260128152602001807f496e73756666696369656e742066756e6473000000000000000000000000000081525060200191505060405180910390fd5b505050565b60025481565b6004602052806000526040600020600091509050806000015490806001015490806002018054600181600116156101000203166002900480601f0160208091040260200160405190810160405280929190818152602001828054600181600116156101000203166002900480156110815780601f1061105657610100808354040283529160200191611081565b820191906000526020600020905b81548152906001019060200180831161106457829003601f168201915b5050505050908060030154908060040154908060050154905086565b6003602052806000526040600020600091509050806000015490806001015490806002018054600181600116156101000203166002900480601f0160208091040260200160405190810160405280929190818152602001828054600181600116156101000203166002900480156111555780601f1061112a57610100808354040283529160200191611155565b820191906000526020600020905b81548152906001019060200180831161113857829003601f168201915b505050505090806003018054600181600116156101000203166002900480601f0160208091040260200160405190810160405280929190818152602001828054600181600116156101000203166002900480156111f35780601f106111c8576101008083540402835291602001916111f3565b820191906000526020600020905b8154815290600101906020018083116111d657829003601f168201915b5050505050908060040160009054906101000a900473ffffffffffffffffffffffffffffffffffffffff16908060050154908060060160009054906101000a900460ff16905087565b828054600181600116156101000203166002900490600052602060002090601f016020900481019282601f1061127d57805160ff19168380011785556112ab565b828001600101855582156112ab579182015b828111156112aa57825182559160200191906001019061128f565b5b5090506112b891906112bc565b5090565b6112de91905b808211156112da5760008160009055506001016112c2565b5090565b9056fea265627a7a7231582057f30fe0cfd1fdb0c1d21ed77af4e867e5b61125875aea6e53f57fdc873de09b64736f6c63430005100032",
  "source": "pragma solidity >0.5.1;\r\n\r\ncontract Banking {\r\n    // int256 public a = 10;\r\n    // string demostring = \"Hello World\";\r\n    // uint256 public c = 0;\r\n    uint256 public bankBalance = 0;\r\n    uint256 public serialNumber = 0;\r\n    uint256 public transacNum=0;\r\n\r\n    struct Account {\r\n        uint256 serial;\r\n        uint256 createdAt;\r\n        string name;\r\n        string location;\r\n        address creator;\r\n        uint256 balance;\r\n        bool doesExist;\r\n    }\r\n\r\n        struct Transaction {\r\n        uint256 transacNum;\r\n        uint256 amountTrans;\r\n        string transacType;\r\n        uint256 currentBalance;\r\n        uint256 transactedAt;\r\n        uint256 accountSerial;\r\n    }\r\n\r\n\r\n    constructor() public{\r\n        accounts[0]=Account(\r\n            0,\r\n            block.timestamp,\r\n            \"Ethereal\",\r\n            \"NIT Durgapur\",\r\n            address(this),\r\n            2,\r\n            true\r\n            );\r\n\r\n            // transactions[0]=Transaction(\r\n            // 0,\r\n            // 2,\r\n            // \"Deposit\",\r\n            // 2,\r\n            // block.timestamp,\r\n            // serialNumber\r\n            // );\r\n        }\r\n    mapping(uint256 => Account) public accounts;\r\n    mapping(uint256=> Transaction) public transactions;\r\n\r\n    // constructor() public{\r\n\r\n    //     }\r\n\r\n    function createAccount(string memory name,string memory location,address payable _creator)\r\n        public payable{\r\n            if(_creator.balance>=3)\r\n            {\r\n                serialNumber++; \r\n                accounts[serialNumber] = Account(serialNumber,block.timestamp,name,location,_creator,2,true);\r\n                bankBalance+=2;\r\n                transactions[serialNumber]=Transaction(0,2,\"Depsoit\",2,block.timestamp,serialNumber);\r\n            }\r\n            else{\r\n                 revert(\"Insufficient funds\");\r\n        }\r\n        \r\n    }\r\n\r\nfunction addBal(uint _serial, uint amount, address payable creator) \r\npublic payable \r\n{\r\n    if(creator.balance>=amount/1000000000000000000+1)\r\n    {\r\n        accounts[_serial].balance+=amount/1000000000000000000;\r\n        bankBalance+=amount/1000000000000000000;\r\n        transacNum++;\r\n        transactions[transacNum]=Transaction(transacNum,amount,\"Deposit\",accounts[_serial].balance,block.timestamp,_serial);\r\n\r\n    }else{\r\n        revert(\"Insufficient funds\");\r\n    }\r\n}\r\nfunction withdrawBal(uint _serial, uint amount, address payable creator) \r\nexternal returns(bool _success)\r\n{\r\n    if(accounts[_serial].balance>=amount/1000000000000000000+1)\r\n    {\r\n        creator.transfer(amount);\r\n        accounts[_serial].balance-=amount/1000000000000000000;\r\n        bankBalance-=amount/1000000000000000000;\r\n        transacNum++;\r\n        transactions[transacNum]=Transaction(transacNum,amount,\"Withdraw\",accounts[_serial].balance,block.timestamp,_serial);\r\n        return true;\r\n    }else{\r\n        revert(\"Insufficient funds\");\r\n    }\r\n}\r\n\r\nfunction transferBal(uint _serial, uint serial_2, uint amount)\r\n    public payable{\r\n        if(accounts[_serial].balance>=amount/1000000000000000000+1)\r\n        {\r\n            accounts[_serial].balance-=amount/1000000000000000000;\r\n            transacNum++;\r\n        transactions[transacNum]=Transaction(transacNum,amount,\"Transferred to another account\" ,accounts[_serial].balance,block.timestamp,_serial);\r\n            accounts[serial_2].balance+=amount/1000000000000000000;\r\n            transacNum++;\r\n        transactions[transacNum]=Transaction(transacNum,amount,\"Deposited from another account\",accounts[_serial].balance,block.timestamp,serial_2);\r\n        }\r\n        else\r\n        {\r\n            revert(\"Insufficient funds!\");\r\n        }\r\n    }\r\n}\r\n",
  "sourcePath": "C:\\Users\\Akshay\\Desktop\\13\\Akshay\\contracts\\Banking.sol",
  "compiler": {
    "name": "solc",
    "version": "0.5.16+commit.9c3226ce.Emscripten.clang"
  },
  "schemaVersion": "3.4.3",
  "updatedAt": "2021-10-28T16:48:55.093Z",
  "networkType": "ethereum",
  "devdoc": {
    "methods": {}
  },
  "userdoc": {
    "methods": {}
  }
}