{
  "contractName": "Demo",
  "abi": [
    {
      "constant": true,
      "inputs": [
        {
          "internalType": "uint256",
          "name": "",
          "type": "uint256"
        }
      ],
      "name": "accounts",
      "outputs": [
        {
          "internalType": "uint256",
          "name": "serial",
          "type": "uint256"
        },
        {
          "internalType": "uint256",
          "name": "createdAt",
          "type": "uint256"
        },
        {
          "internalType": "string",
          "name": "name",
          "type": "string"
        },
        {
          "internalType": "string",
          "name": "location",
          "type": "string"
        },
        {
          "internalType": "address payable",
          "name": "creator",
          "type": "address"
        },
        {
          "internalType": "uint256",
          "name": "balance",
          "type": "uint256"
        },
        {
          "internalType": "bool",
          "name": "doesExist",
          "type": "bool"
        }
      ],
      "payable": false,
      "stateMutability": "view",
      "type": "function"
    },
    {
      "constant": true,
      "inputs": [],
      "name": "bankBalance",
      "outputs": [
        {
          "internalType": "uint256",
          "name": "",
          "type": "uint256"
        }
      ],
      "payable": false,
      "stateMutability": "view",
      "type": "function"
    },
    {
      "constant": true,
      "inputs": [],
      "name": "serialNumber",
      "outputs": [
        {
          "internalType": "uint256",
          "name": "",
          "type": "uint256"
        }
      ],
      "payable": false,
      "stateMutability": "view",
      "type": "function"
    },
    {
      "constant": false,
      "inputs": [
        {
          "internalType": "string",
          "name": "name",
          "type": "string"
        },
        {
          "internalType": "string",
          "name": "location",
          "type": "string"
        },
        {
          "internalType": "address payable",
          "name": "_creator",
          "type": "address"
        }
      ],
      "name": "create",
      "outputs": [],
      "payable": true,
      "stateMutability": "payable",
      "type": "function"
    }
  ],
  "bytecode": "0x608060405260008055600060015534801561001957600080fd5b50610741806100296000396000f3fe60806040526004361061003f5760003560e01c806328657aa5146100445780632a0daeea1461006f5780635a9c27241461009a578063f2a40db81461020c575b600080fd5b34801561005057600080fd5b5061005961037f565b6040518082815260200191505060405180910390f35b34801561007b57600080fd5b50610084610385565b6040518082815260200191505060405180910390f35b61020a600480360360608110156100b057600080fd5b81019080803590602001906401000000008111156100cd57600080fd5b8201836020820111156100df57600080fd5b8035906020019184600183028401116401000000008311171561010157600080fd5b91908080601f016020809104026020016040519081016040528093929190818152602001838380828437600081840152601f19601f8201169050808301925050505050505091929192908035906020019064010000000081111561016457600080fd5b82018360208201111561017657600080fd5b8035906020019184600183028401116401000000008311171561019857600080fd5b91908080601f016020809104026020016040519081016040528093929190818152602001838380828437600081840152601f19601f820116905080830192505050505050509192919290803573ffffffffffffffffffffffffffffffffffffffff16906020019092919050505061038b565b005b34801561021857600080fd5b506102456004803603602081101561022f57600080fd5b81019080803590602001909291905050506104c8565b6040518088815260200187815260200180602001806020018673ffffffffffffffffffffffffffffffffffffffff1673ffffffffffffffffffffffffffffffffffffffff16815260200185815260200184151515158152602001838103835288818151815260200191508051906020019080838360005b838110156102d75780820151818401526020810190506102bc565b50505050905090810190601f1680156103045780820380516001836020036101000a031916815260200191505b50838103825287818151815260200191508051906020019080838360005b8381101561033d578082015181840152602081019050610322565b50505050905090810190601f16801561036a5780820380516001836020036101000a031916815260200191505b50995050505050505050505060405180910390f35b60005481565b60015481565b6001600081548092919060010191905055506040518060e0016040528060015481526020014281526020018481526020018381526020018273ffffffffffffffffffffffffffffffffffffffff168152602001600281526020016001151581525060026000600154815260200190815260200160002060008201518160000155602082015181600101556040820151816002019080519060200190610431929190610667565b50606082015181600301908051906020019061044e929190610667565b5060808201518160040160006101000a81548173ffffffffffffffffffffffffffffffffffffffff021916908373ffffffffffffffffffffffffffffffffffffffff16021790555060a0820151816005015560c08201518160060160006101000a81548160ff021916908315150217905550905050505050565b6002602052806000526040600020600091509050806000015490806001015490806002018054600181600116156101000203166002900480601f0160208091040260200160405190810160405280929190818152602001828054600181600116156101000203166002900480156105805780601f1061055557610100808354040283529160200191610580565b820191906000526020600020905b81548152906001019060200180831161056357829003601f168201915b505050505090806003018054600181600116156101000203166002900480601f01602080910402602001604051908101604052809291908181526020018280546001816001161561010002031660029004801561061e5780601f106105f35761010080835404028352916020019161061e565b820191906000526020600020905b81548152906001019060200180831161060157829003601f168201915b5050505050908060040160009054906101000a900473ffffffffffffffffffffffffffffffffffffffff16908060050154908060060160009054906101000a900460ff16905087565b828054600181600116156101000203166002900490600052602060002090601f016020900481019282601f106106a857805160ff19168380011785556106d6565b828001600101855582156106d6579182015b828111156106d55782518255916020019190600101906106ba565b5b5090506106e391906106e7565b5090565b61070991905b808211156107055760008160009055506001016106ed565b5090565b9056fea265627a7a72315820f7d3d3886b6c17078618b051e5fe23a292f841bee40edb1b4bf309fcf3fdcf4064736f6c63430005100032",
  "source": "pragma solidity >0.5.1;\r\n\r\ncontract Demo {\r\n    // int256 public a = 10;\r\n    // string demostring = \"Hello World\";\r\n    // uint256 public c = 0;\r\n    uint256 public bankBalance = 0;\r\n    uint256 public serialNumber = 0;\r\n\r\n    struct Account {\r\n        uint256 serial;\r\n        uint256 createdAt;\r\n        string name;\r\n        string location;\r\n        address payable creator;\r\n        uint256 balance;\r\n        bool doesExist;\r\n    }\r\n\r\n    mapping(uint256 => Account) public accounts;\r\n\r\n    // function get() public view returns (string memory) {\r\n    //     return demostring;\r\n    // }\r\n\r\n    function create(\r\n        string memory name,\r\n        string memory location,\r\n        address payable _creator\r\n    ) public payable {\r\n        serialNumber++;\r\n        accounts[serialNumber] = Account(\r\n            serialNumber,\r\n            block.timestamp,\r\n            name,\r\n            location,\r\n            _creator,\r\n            2,\r\n            true\r\n        );\r\n    }\r\n\r\n    // function getContractBalance()\r\n    //     // function display(int256 ind) public view returns (string memory, int) {\r\n    //     todo storage todos= todos[ind];\r\n    //     return (todos.todo_name, todos.counter);\r\n    // }\r\n}\r\n",
  "sourcePath": "C:\\Users\\Akshay\\Desktop\\BlockC\\TDoC-Ethereal\\contracts\\Banking.sol",
  "compiler": {
    "name": "solc",
    "version": "0.5.16+commit.9c3226ce.Emscripten.clang"
  },
  "schemaVersion": "3.4.3",
  "updatedAt": "2021-10-25T12:17:52.764Z",
  "devdoc": {
    "methods": {}
  },
  "userdoc": {
    "methods": {}
  }
}