{
  "contractName": "Demo",
  "abi": [
    {
      "constant": true,
      "inputs": [],
      "name": "a",
      "outputs": [
        {
          "internalType": "int256",
          "name": "",
          "type": "int256"
        }
      ],
      "payable": false,
      "stateMutability": "view",
      "type": "function"
    },
    {
      "constant": true,
      "inputs": [],
      "name": "c",
      "outputs": [
        {
          "internalType": "uint256",
          "name": "",
          "type": "uint256"
        }
      ],
      "payable": false,
      "stateMutability": "view",
      "type": "function"
    },
    {
      "constant": true,
      "inputs": [
        {
          "internalType": "uint256",
          "name": "",
          "type": "uint256"
        }
      ],
      "name": "todos",
      "outputs": [
        {
          "internalType": "string",
          "name": "todo_name",
          "type": "string"
        },
        {
          "internalType": "uint256",
          "name": "counter",
          "type": "uint256"
        }
      ],
      "payable": false,
      "stateMutability": "view",
      "type": "function"
    },
    {
      "constant": false,
      "inputs": [
        {
          "internalType": "string",
          "name": "b",
          "type": "string"
        }
      ],
      "name": "create",
      "outputs": [],
      "payable": false,
      "stateMutability": "nonpayable",
      "type": "function"
    }
  ],
  "bytecode": "0x6080604052600a6000556040518060400160405280600b81526020017f48656c6c6f20576f726c640000000000000000000000000000000000000000008152506001908051906020019061005492919061006c565b50600060025534801561006657600080fd5b50610111565b828054600181600116156101000203166002900490600052602060002090601f016020900481019282601f106100ad57805160ff19168380011785556100db565b828001600101855582156100db579182015b828111156100da5782518255916020019190600101906100bf565b5b5090506100e891906100ec565b5090565b61010e91905b8082111561010a5760008160009055506001016100f2565b5090565b90565b610403806101206000396000f3fe608060405234801561001057600080fd5b506004361061004c5760003560e01c80630dbe671f14610051578063b6a46b3b1461006f578063bc8bc2b41461012a578063c3da42b8146101d8575b600080fd5b6100596101f6565b6040518082815260200191505060405180910390f35b6101286004803603602081101561008557600080fd5b81019080803590602001906401000000008111156100a257600080fd5b8201836020820111156100b457600080fd5b803590602001918460018302840111640100000000831117156100d657600080fd5b91908080601f016020809104026020016040519081016040528093929190818152602001838380828437600081840152601f19601f8201169050808301925050505050505091929192905050506101fc565b005b6101566004803603602081101561014057600080fd5b8101908080359060200190929190505050610267565b6040518080602001838152602001828103825284818151815260200191508051906020019080838360005b8381101561019c578082015181840152602081019050610181565b50505050905090810190601f1680156101c95780820380516001836020036101000a031916815260200191505b50935050505060405180910390f35b6101e0610323565b6040518082815260200191505060405180910390f35b60005481565b60026000815480929190600101919050555060405180604001604052808281526020016002548152506003600060025481526020019081526020016000206000820151816000019080519060200190610256929190610329565b506020820151816001015590505050565b6003602052806000526040600020600091509050806000018054600181600116156101000203166002900480601f0160208091040260200160405190810160405280929190818152602001828054600181600116156101000203166002900480156103135780601f106102e857610100808354040283529160200191610313565b820191906000526020600020905b8154815290600101906020018083116102f657829003601f168201915b5050505050908060010154905082565b60025481565b828054600181600116156101000203166002900490600052602060002090601f016020900481019282601f1061036a57805160ff1916838001178555610398565b82800160010185558215610398579182015b8281111561039757825182559160200191906001019061037c565b5b5090506103a591906103a9565b5090565b6103cb91905b808211156103c75760008160009055506001016103af565b5090565b9056fea265627a7a7231582017a12f27a67e4009600f191f20759ffc1051f772abaf885ed08557d15255491364736f6c63430005100032",
  "source": "pragma solidity >0.5.1;\r\n\r\ncontract Demo {\r\n    int256 public a = 10;\r\n    string demostring = \"Hello World\";\r\n    uint256 public c = 0;\r\n\r\n    struct todo {\r\n        string todo_name;\r\n        uint256 counter;\r\n    }\r\n\r\n    mapping(uint256 => todo) public todos;\r\n\r\n    // function get() public view returns (string memory) {\r\n    //     return demostring;\r\n    // }\r\n\r\n    function create(string memory b) public {\r\n        c++;\r\n        todos[c] = todo(b, c);\r\n    }\r\n\r\n    // function display(int256 ind) public view returns (string memory, int) {\r\n    //     todo storage todos= todos[ind];\r\n    //     return (todos.todo_name, todos.counter);\r\n    // }\r\n}\r\n",
  "sourcePath": "C:\\Users\\Akshay\\Desktop\\BlockC\\contracts\\Demo.sol",
  "compiler": {
    "name": "solc",
    "version": "0.5.16+commit.9c3226ce.Emscripten.clang"
  },
  "schemaVersion": "3.4.3",
  "updatedAt": "2021-10-22T13:28:27.192Z",
  "networkType": "ethereum",
  "devdoc": {
    "methods": {}
  },
  "userdoc": {
    "methods": {}
  }
}